{
  "_format": "hh-sol-artifact-1",
  "contractName": "MintNFT",
  "sourceName": "contracts/MintNFT.sol",
  "abi": [
    {
      "inputs": [],
      "stateMutability": "nonpayable",
      "type": "constructor"
    },
    {
      "anonymous": false,
      "inputs": [
        {
          "indexed": true,
          "internalType": "address",
          "name": "owner",
          "type": "address"
        },
        {
          "indexed": true,
          "internalType": "address",
          "name": "approved",
          "type": "address"
        },
        {
          "indexed": true,
          "internalType": "uint256",
          "name": "tokenId",
          "type": "uint256"
        }
      ],
      "name": "Approval",
      "type": "event"
    },
    {
      "anonymous": false,
      "inputs": [
        {
          "indexed": true,
          "internalType": "address",
          "name": "owner",
          "type": "address"
        },
        {
          "indexed": true,
          "internalType": "address",
          "name": "operator",
          "type": "address"
        },
        {
          "indexed": false,
          "internalType": "bool",
          "name": "approved",
          "type": "bool"
        }
      ],
      "name": "ApprovalForAll",
      "type": "event"
    },
    {
      "anonymous": false,
      "inputs": [
        {
          "indexed": true,
          "internalType": "address",
          "name": "from",
          "type": "address"
        },
        {
          "indexed": true,
          "internalType": "address",
          "name": "to",
          "type": "address"
        },
        {
          "indexed": true,
          "internalType": "uint256",
          "name": "tokenId",
          "type": "uint256"
        }
      ],
      "name": "Transfer",
      "type": "event"
    },
    {
      "inputs": [
        {
          "internalType": "string",
          "name": "_title",
          "type": "string"
        },
        {
          "internalType": "string",
          "name": "_description",
          "type": "string"
        },
        {
          "internalType": "string",
          "name": "_imageId",
          "type": "string"
        }
      ],
      "name": "addBook",
      "outputs": [
        {
          "internalType": "uint256",
          "name": "",
          "type": "uint256"
        }
      ],
      "stateMutability": "nonpayable",
      "type": "function"
    },
    {
      "inputs": [
        {
          "internalType": "uint256",
          "name": "_bookId",
          "type": "uint256"
        },
        {
          "internalType": "string",
          "name": "_content",
          "type": "string"
        },
        {
          "internalType": "address",
          "name": "_reviewer",
          "type": "address"
        }
      ],
      "name": "addComment",
      "outputs": [],
      "stateMutability": "nonpayable",
      "type": "function"
    },
    {
      "inputs": [
        {
          "internalType": "uint256",
          "name": "_bookId",
          "type": "uint256"
        },
        {
          "internalType": "string",
          "name": "_blockAddress",
          "type": "string"
        }
      ],
      "name": "addVerifiedBlockAddress",
      "outputs": [],
      "stateMutability": "nonpayable",
      "type": "function"
    },
    {
      "inputs": [
        {
          "internalType": "uint256",
          "name": "",
          "type": "uint256"
        }
      ],
      "name": "allBooks",
      "outputs": [
        {
          "internalType": "uint256",
          "name": "id",
          "type": "uint256"
        },
        {
          "internalType": "string",
          "name": "title",
          "type": "string"
        },
        {
          "internalType": "string",
          "name": "description",
          "type": "string"
        },
        {
          "internalType": "string",
          "name": "imageId",
          "type": "string"
        }
      ],
      "stateMutability": "view",
      "type": "function"
    },
    {
      "inputs": [
        {
          "internalType": "address",
          "name": "to",
          "type": "address"
        },
        {
          "internalType": "uint256",
          "name": "tokenId",
          "type": "uint256"
        }
      ],
      "name": "approve",
      "outputs": [],
      "stateMutability": "nonpayable",
      "type": "function"
    },
    {
      "inputs": [
        {
          "internalType": "address",
          "name": "owner",
          "type": "address"
        }
      ],
      "name": "balanceOf",
      "outputs": [
        {
          "internalType": "uint256",
          "name": "",
          "type": "uint256"
        }
      ],
      "stateMutability": "view",
      "type": "function"
    },
    {
      "inputs": [
        {
          "internalType": "uint256",
          "name": "",
          "type": "uint256"
        }
      ],
      "name": "books",
      "outputs": [
        {
          "internalType": "uint256",
          "name": "id",
          "type": "uint256"
        },
        {
          "internalType": "string",
          "name": "title",
          "type": "string"
        },
        {
          "internalType": "string",
          "name": "description",
          "type": "string"
        },
        {
          "internalType": "string",
          "name": "imageId",
          "type": "string"
        }
      ],
      "stateMutability": "view",
      "type": "function"
    },
    {
      "inputs": [
        {
          "internalType": "uint256",
          "name": "",
          "type": "uint256"
        }
      ],
      "name": "comments",
      "outputs": [
        {
          "internalType": "uint256",
          "name": "id",
          "type": "uint256"
        },
        {
          "internalType": "uint256",
          "name": "bookId",
          "type": "uint256"
        },
        {
          "internalType": "string",
          "name": "content",
          "type": "string"
        },
        {
          "internalType": "address",
          "name": "reviewer",
          "type": "address"
        }
      ],
      "stateMutability": "view",
      "type": "function"
    },
    {
      "inputs": [],
      "name": "getAllBooks",
      "outputs": [
        {
          "components": [
            {
              "internalType": "uint256",
              "name": "id",
              "type": "uint256"
            },
            {
              "internalType": "string",
              "name": "title",
              "type": "string"
            },
            {
              "internalType": "string",
              "name": "description",
              "type": "string"
            },
            {
              "internalType": "string",
              "name": "imageId",
              "type": "string"
            }
          ],
          "internalType": "struct MintNFT.Book[]",
          "name": "",
          "type": "tuple[]"
        }
      ],
      "stateMutability": "view",
      "type": "function"
    },
    {
      "inputs": [
        {
          "internalType": "uint256",
          "name": "tokenId",
          "type": "uint256"
        }
      ],
      "name": "getApproved",
      "outputs": [
        {
          "internalType": "address",
          "name": "",
          "type": "address"
        }
      ],
      "stateMutability": "view",
      "type": "function"
    },
    {
      "inputs": [
        {
          "internalType": "uint256",
          "name": "bookID",
          "type": "uint256"
        }
      ],
      "name": "getBookById",
      "outputs": [
        {
          "components": [
            {
              "internalType": "uint256",
              "name": "id",
              "type": "uint256"
            },
            {
              "internalType": "string",
              "name": "title",
              "type": "string"
            },
            {
              "internalType": "string",
              "name": "description",
              "type": "string"
            },
            {
              "internalType": "string",
              "name": "imageId",
              "type": "string"
            }
          ],
          "internalType": "struct MintNFT.Book",
          "name": "",
          "type": "tuple"
        }
      ],
      "stateMutability": "view",
      "type": "function"
    },
    {
      "inputs": [
        {
          "internalType": "uint256",
          "name": "_bookId",
          "type": "uint256"
        }
      ],
      "name": "getCommentsByBook",
      "outputs": [
        {
          "internalType": "uint256[]",
          "name": "",
          "type": "uint256[]"
        }
      ],
      "stateMutability": "view",
      "type": "function"
    },
    {
      "inputs": [
        {
          "internalType": "uint256[]",
          "name": "ids",
          "type": "uint256[]"
        }
      ],
      "name": "getCommentsByIds",
      "outputs": [
        {
          "components": [
            {
              "internalType": "uint256",
              "name": "id",
              "type": "uint256"
            },
            {
              "internalType": "uint256",
              "name": "bookId",
              "type": "uint256"
            },
            {
              "internalType": "string",
              "name": "content",
              "type": "string"
            },
            {
              "internalType": "address",
              "name": "reviewer",
              "type": "address"
            }
          ],
          "internalType": "struct MintNFT.Comment[]",
          "name": "",
          "type": "tuple[]"
        }
      ],
      "stateMutability": "view",
      "type": "function"
    },
    {
      "inputs": [
        {
          "internalType": "uint256",
          "name": "key",
          "type": "uint256"
        }
      ],
      "name": "getVerifiedBlockAddresses",
      "outputs": [
        {
          "internalType": "string[]",
          "name": "",
          "type": "string[]"
        }
      ],
      "stateMutability": "view",
      "type": "function"
    },
    {
      "inputs": [
        {
          "internalType": "address",
          "name": "owner",
          "type": "address"
        },
        {
          "internalType": "address",
          "name": "operator",
          "type": "address"
        }
      ],
      "name": "isApprovedForAll",
      "outputs": [
        {
          "internalType": "bool",
          "name": "",
          "type": "bool"
        }
      ],
      "stateMutability": "view",
      "type": "function"
    },
    {
      "inputs": [
        {
          "internalType": "uint256",
          "name": "_bookId",
          "type": "uint256"
        }
      ],
      "name": "isMintNFTed",
      "outputs": [
        {
          "internalType": "bool",
          "name": "",
          "type": "bool"
        }
      ],
      "stateMutability": "view",
      "type": "function"
    },
    {
      "inputs": [],
      "name": "name",
      "outputs": [
        {
          "internalType": "string",
          "name": "",
          "type": "string"
        }
      ],
      "stateMutability": "view",
      "type": "function"
    },
    {
      "inputs": [],
      "name": "owner",
      "outputs": [
        {
          "internalType": "address",
          "name": "",
          "type": "address"
        }
      ],
      "stateMutability": "view",
      "type": "function"
    },
    {
      "inputs": [
        {
          "internalType": "uint256",
          "name": "tokenId",
          "type": "uint256"
        }
      ],
      "name": "ownerOf",
      "outputs": [
        {
          "internalType": "address",
          "name": "",
          "type": "address"
        }
      ],
      "stateMutability": "view",
      "type": "function"
    },
    {
      "inputs": [
        {
          "internalType": "uint256",
          "name": "_tokenId",
          "type": "uint256"
        }
      ],
      "name": "purchase",
      "outputs": [],
      "stateMutability": "payable",
      "type": "function"
    },
    {
      "inputs": [
        {
          "internalType": "address",
          "name": "from",
          "type": "address"
        },
        {
          "internalType": "address",
          "name": "to",
          "type": "address"
        },
        {
          "internalType": "uint256",
          "name": "tokenId",
          "type": "uint256"
        }
      ],
      "name": "safeTransferFrom",
      "outputs": [],
      "stateMutability": "nonpayable",
      "type": "function"
    },
    {
      "inputs": [
        {
          "internalType": "address",
          "name": "from",
          "type": "address"
        },
        {
          "internalType": "address",
          "name": "to",
          "type": "address"
        },
        {
          "internalType": "uint256",
          "name": "tokenId",
          "type": "uint256"
        },
        {
          "internalType": "bytes",
          "name": "data",
          "type": "bytes"
        }
      ],
      "name": "safeTransferFrom",
      "outputs": [],
      "stateMutability": "nonpayable",
      "type": "function"
    },
    {
      "inputs": [
        {
          "internalType": "address",
          "name": "operator",
          "type": "address"
        },
        {
          "internalType": "bool",
          "name": "approved",
          "type": "bool"
        }
      ],
      "name": "setApprovalForAll",
      "outputs": [],
      "stateMutability": "nonpayable",
      "type": "function"
    },
    {
      "inputs": [
        {
          "internalType": "bytes4",
          "name": "interfaceId",
          "type": "bytes4"
        }
      ],
      "name": "supportsInterface",
      "outputs": [
        {
          "internalType": "bool",
          "name": "",
          "type": "bool"
        }
      ],
      "stateMutability": "view",
      "type": "function"
    },
    {
      "inputs": [],
      "name": "symbol",
      "outputs": [
        {
          "internalType": "string",
          "name": "",
          "type": "string"
        }
      ],
      "stateMutability": "view",
      "type": "function"
    },
    {
      "inputs": [
        {
          "internalType": "uint256",
          "name": "index",
          "type": "uint256"
        }
      ],
      "name": "tokenByIndex",
      "outputs": [
        {
          "internalType": "uint256",
          "name": "",
          "type": "uint256"
        }
      ],
      "stateMutability": "view",
      "type": "function"
    },
    {
      "inputs": [],
      "name": "tokenId",
      "outputs": [
        {
          "internalType": "uint256",
          "name": "",
          "type": "uint256"
        }
      ],
      "stateMutability": "view",
      "type": "function"
    },
    {
      "inputs": [
        {
          "internalType": "address",
          "name": "owner",
          "type": "address"
        },
        {
          "internalType": "uint256",
          "name": "index",
          "type": "uint256"
        }
      ],
      "name": "tokenOfOwnerByIndex",
      "outputs": [
        {
          "internalType": "uint256",
          "name": "",
          "type": "uint256"
        }
      ],
      "stateMutability": "view",
      "type": "function"
    },
    {
      "inputs": [
        {
          "internalType": "uint256",
          "name": "tokenId",
          "type": "uint256"
        }
      ],
      "name": "tokenURI",
      "outputs": [
        {
          "internalType": "string",
          "name": "",
          "type": "string"
        }
      ],
      "stateMutability": "view",
      "type": "function"
    },
    {
      "inputs": [],
      "name": "tokensOfOwner",
      "outputs": [
        {
          "internalType": "uint256[]",
          "name": "",
          "type": "uint256[]"
        }
      ],
      "stateMutability": "view",
      "type": "function"
    },
    {
      "inputs": [],
      "name": "totalSupply",
      "outputs": [
        {
          "internalType": "uint256",
          "name": "",
          "type": "uint256"
        }
      ],
      "stateMutability": "view",
      "type": "function"
    },
    {
      "inputs": [
        {
          "internalType": "address",
          "name": "from",
          "type": "address"
        },
        {
          "internalType": "address",
          "name": "to",
          "type": "address"
        },
        {
          "internalType": "uint256",
          "name": "tokenId",
          "type": "uint256"
        }
      ],
      "name": "transferFrom",
      "outputs": [],
      "stateMutability": "nonpayable",
      "type": "function"
    }
  ],
  "bytecode": "0x6080604052600160125560016013553480156200001b57600080fd5b506040518060400160405280600781526020017f4d696e744e4654000000000000000000000000000000000000000000000000008152506040518060400160405280600781526020017f4d696e744e46540000000000000000000000000000000000000000000000000081525081600090816200009991906200036f565b508060019081620000ab91906200036f565b50505033601160006101000a81548173ffffffffffffffffffffffffffffffffffffffff021916908373ffffffffffffffffffffffffffffffffffffffff16021790555062000456565b600081519050919050565b7f4e487b7100000000000000000000000000000000000000000000000000000000600052604160045260246000fd5b7f4e487b7100000000000000000000000000000000000000000000000000000000600052602260045260246000fd5b600060028204905060018216806200017757607f821691505b6020821081036200018d576200018c6200012f565b5b50919050565b60008190508160005260206000209050919050565b60006020601f8301049050919050565b600082821b905092915050565b600060088302620001f77fffffffffffffffffffffffffffffffffffffffffffffffffffffffffffffffff82620001b8565b620002038683620001b8565b95508019841693508086168417925050509392505050565b6000819050919050565b6000819050919050565b6000620002506200024a62000244846200021b565b62000225565b6200021b565b9050919050565b6000819050919050565b6200026c836200022f565b620002846200027b8262000257565b848454620001c5565b825550505050565b600090565b6200029b6200028c565b620002a881848462000261565b505050565b5b81811015620002d057620002c460008262000291565b600181019050620002ae565b5050565b601f8211156200031f57620002e98162000193565b620002f484620001a8565b8101602085101562000304578190505b6200031c6200031385620001a8565b830182620002ad565b50505b505050565b600082821c905092915050565b6000620003446000198460080262000324565b1980831691505092915050565b60006200035f838362000331565b9150826002028217905092915050565b6200037a82620000f5565b67ffffffffffffffff81111562000396576200039562000100565b5b620003a282546200015e565b620003af828285620002d4565b600060209050601f831160018114620003e75760008415620003d2578287015190505b620003de858262000351565b8655506200044e565b601f198416620003f78662000193565b60005b828110156200042157848901518255600182019150602085019450602081019050620003fa565b868310156200044157848901516200043d601f89168262000331565b8355505b6001600288020188555050505b505050505050565b6157de80620004666000396000f3fe6080604052600436106101e35760003560e01c806369c46826116101025780639bd4465811610095578063b88d4fde11610064578063b88d4fde146107a7578063c87b56dd146107d0578063e985e9c51461080d578063efef39a11461084a576101e3565b80639bd44658146106d8578063a22cb46514610718578063ad18da3414610741578063b4b5ad671461076a576101e3565b80638ebb4c15116100d15780638ebb4c151461061957806395d89b411461065957806395ea0f12146106845780639647b8df146106af576101e3565b806369c468261461053757806370a082311461057457806386016b17146105b15780638da5cb5b146105ee576101e3565b80632f745c591161017a57806342842e0e1161014957806342842e0e146104545780634f6ccce71461047d5780636352211e146104ba57806368744046146104f7576101e3565b80632f745c5914610372578063354528e8146103af578063360d03a1146103da578063418b79ab14610417576101e3565b806317d70f7c116101b657806317d70f7c146102b657806318160ddd146102e15780631b1843261461030c57806323b872dd14610349576101e3565b806301ffc9a7146101e857806306fdde0314610225578063081812fc14610250578063095ea7b31461028d575b600080fd5b3480156101f457600080fd5b5061020f600480360381019061020a91906139d9565b610866565b60405161021c9190613a21565b60405180910390f35b34801561023157600080fd5b5061023a6108e0565b6040516102479190613acc565b60405180910390f35b34801561025c57600080fd5b5061027760048036038101906102729190613b24565b610972565b6040516102849190613b92565b60405180910390f35b34801561029957600080fd5b506102b460048036038101906102af9190613bd9565b6109b8565b005b3480156102c257600080fd5b506102cb610acf565b6040516102d89190613c28565b60405180910390f35b3480156102ed57600080fd5b506102f6610ad5565b6040516103039190613c28565b60405180910390f35b34801561031857600080fd5b50610333600480360381019061032e9190613b24565b610ae2565b6040516103409190613a21565b60405180910390f35b34801561035557600080fd5b50610370600480360381019061036b9190613c43565b610b39565b005b34801561037e57600080fd5b5061039960048036038101906103949190613bd9565b610b99565b6040516103a69190613c28565b60405180910390f35b3480156103bb57600080fd5b506103c4610c3e565b6040516103d19190613e22565b60405180910390f35b3480156103e657600080fd5b5061040160048036038101906103fc9190613f8c565b610e5d565b60405161040e9190614109565b60405180910390f35b34801561042357600080fd5b5061043e60048036038101906104399190613b24565b611108565b60405161044b919061419c565b60405180910390f35b34801561046057600080fd5b5061047b60048036038101906104769190613c43565b61134b565b005b34801561048957600080fd5b506104a4600480360381019061049f9190613b24565b61136b565b6040516104b19190613c28565b60405180910390f35b3480156104c657600080fd5b506104e160048036038101906104dc9190613b24565b6113dc565b6040516104ee9190613b92565b60405180910390f35b34801561050357600080fd5b5061051e60048036038101906105199190613b24565b611462565b60405161052e94939291906141be565b60405180910390f35b34801561054357600080fd5b5061055e600480360381019061055991906142cd565b61162a565b60405161056b9190613c28565b60405180910390f35b34801561058057600080fd5b5061059b60048036038101906105969190614374565b61181f565b6040516105a89190613c28565b60405180910390f35b3480156105bd57600080fd5b506105d860048036038101906105d39190613b24565b6118d6565b6040516105e59190614450565b60405180910390f35b3480156105fa57600080fd5b50610603611a4a565b6040516106109190613b92565b60405180910390f35b34801561062557600080fd5b50610640600480360381019061063b9190613b24565b611a70565b6040516106509493929190614472565b60405180910390f35b34801561066557600080fd5b5061066e611b48565b60405161067b9190613acc565b60405180910390f35b34801561069057600080fd5b50610699611bda565b6040516106a69190614450565b60405180910390f35b3480156106bb57600080fd5b506106d660048036038101906106d191906144be565b611cca565b005b3480156106e457600080fd5b506106ff60048036038101906106fa9190613b24565b611dfd565b60405161070f94939291906141be565b60405180910390f35b34801561072457600080fd5b5061073f600480360381019061073a9190614559565b611fd5565b005b34801561074d57600080fd5b5061076860048036038101906107639190614599565b611feb565b005b34801561077657600080fd5b50610791600480360381019061078c9190613b24565b6120c5565b60405161079e91906146b7565b60405180910390f35b3480156107b357600080fd5b506107ce60048036038101906107c9919061477a565b6121b1565b005b3480156107dc57600080fd5b506107f760048036038101906107f29190613b24565b612213565b6040516108049190613acc565b60405180910390f35b34801561081957600080fd5b50610834600480360381019061082f91906147fd565b61227b565b6040516108419190613a21565b60405180910390f35b610864600480360381019061085f9190613b24565b61230f565b005b60007f780e9d63000000000000000000000000000000000000000000000000000000007bffffffffffffffffffffffffffffffffffffffffffffffffffffffff1916827bffffffffffffffffffffffffffffffffffffffffffffffffffffffff191614806108d957506108d8826125cf565b5b9050919050565b6060600080546108ef9061486c565b80601f016020809104026020016040519081016040528092919081815260200182805461091b9061486c565b80156109685780601f1061093d57610100808354040283529160200191610968565b820191906000526020600020905b81548152906001019060200180831161094b57829003601f168201915b5050505050905090565b600061097d826126b1565b6004600083815260200190815260200160002060009054906101000a900473ffffffffffffffffffffffffffffffffffffffff169050919050565b60006109c3826113dc565b90508073ffffffffffffffffffffffffffffffffffffffff168373ffffffffffffffffffffffffffffffffffffffff1603610a33576040517f08c379a0000000000000000000000000000000000000000000000000000000008152600401610a2a9061490f565b60405180910390fd5b8073ffffffffffffffffffffffffffffffffffffffff16610a526126fc565b73ffffffffffffffffffffffffffffffffffffffff161480610a815750610a8081610a7b6126fc565b61227b565b5b610ac0576040517f08c379a0000000000000000000000000000000000000000000000000000000008152600401610ab7906149a1565b60405180910390fd5b610aca8383612704565b505050565b600a5481565b6000600880549050905090565b600080600190505b601354811015610b2e5782600f60008381526020019081526020016000206001015403610b1b576001915050610b34565b8080610b26906149f0565b915050610aea565b50600090505b919050565b610b4a610b446126fc565b826127bd565b610b89576040517f08c379a0000000000000000000000000000000000000000000000000000000008152600401610b8090614aaa565b60405180910390fd5b610b94838383612852565b505050565b6000610ba48361181f565b8210610be5576040517f08c379a0000000000000000000000000000000000000000000000000000000008152600401610bdc90614b3c565b60405180910390fd5b600660008473ffffffffffffffffffffffffffffffffffffffff1673ffffffffffffffffffffffffffffffffffffffff168152602001908152602001600020600083815260200190815260200160002054905092915050565b60606010805480602002602001604051908101604052809291908181526020016000905b82821015610e54578382906000526020600020906004020160405180608001604052908160008201548152602001600182018054610c9f9061486c565b80601f0160208091040260200160405190810160405280929190818152602001828054610ccb9061486c565b8015610d185780601f10610ced57610100808354040283529160200191610d18565b820191906000526020600020905b815481529060010190602001808311610cfb57829003601f168201915b50505050508152602001600282018054610d319061486c565b80601f0160208091040260200160405190810160405280929190818152602001828054610d5d9061486c565b8015610daa5780601f10610d7f57610100808354040283529160200191610daa565b820191906000526020600020905b815481529060010190602001808311610d8d57829003601f168201915b50505050508152602001600382018054610dc39061486c565b80601f0160208091040260200160405190810160405280929190818152602001828054610def9061486c565b8015610e3c5780601f10610e1157610100808354040283529160200191610e3c565b820191906000526020600020905b815481529060010190602001808311610e1f57829003601f168201915b50505050508152505081526020019060010190610c62565b50505050905090565b60606000805b8351811015610ed8576000848281518110610e8157610e80614b5c565b5b6020026020010151118015610eb15750601354848281518110610ea757610ea6614b5c565b5b6020026020010151105b15610ec5578180610ec1906149f0565b9250505b8080610ed0906149f0565b915050610e63565b5060008167ffffffffffffffff811115610ef557610ef4613e49565b5b604051908082528060200260200182016040528015610f2e57816020015b610f1b613907565b815260200190600190039081610f135790505b5090506000805b85518110156110fc576000868281518110610f5357610f52614b5c565b5b6020026020010151118015610f835750601354868281518110610f7957610f78614b5c565b5b6020026020010151105b156110e957600f6000878381518110610f9f57610f9e614b5c565b5b602002602001015181526020019081526020016000206040518060800160405290816000820154815260200160018201548152602001600282018054610fe49061486c565b80601f01602080910402602001604051908101604052809291908181526020018280546110109061486c565b801561105d5780601f106110325761010080835404028352916020019161105d565b820191906000526020600020905b81548152906001019060200180831161104057829003601f168201915b505050505081526020016003820160009054906101000a900473ffffffffffffffffffffffffffffffffffffffff1673ffffffffffffffffffffffffffffffffffffffff1673ffffffffffffffffffffffffffffffffffffffff16815250508383815181106110cf576110ce614b5c565b5b602002602001018190525081806110e5906149f0565b9250505b80806110f4906149f0565b915050610f35565b50819350505050919050565b611110613945565b6010805490508210611157576040517f08c379a000000000000000000000000000000000000000000000000000000000815260040161114e90614bd7565b60405180910390fd5b6010828154811061116b5761116a614b5c565b5b90600052602060002090600402016040518060800160405290816000820154815260200160018201805461119e9061486c565b80601f01602080910402602001604051908101604052809291908181526020018280546111ca9061486c565b80156112175780601f106111ec57610100808354040283529160200191611217565b820191906000526020600020905b8154815290600101906020018083116111fa57829003601f168201915b505050505081526020016002820180546112309061486c565b80601f016020809104026020016040519081016040528092919081815260200182805461125c9061486c565b80156112a95780601f1061127e576101008083540402835291602001916112a9565b820191906000526020600020905b81548152906001019060200180831161128c57829003601f168201915b505050505081526020016003820180546112c29061486c565b80601f01602080910402602001604051908101604052809291908181526020018280546112ee9061486c565b801561133b5780601f106113105761010080835404028352916020019161133b565b820191906000526020600020905b81548152906001019060200180831161131e57829003601f168201915b5050505050815250509050919050565b611366838383604051806020016040528060008152506121b1565b505050565b6000611375610ad5565b82106113b6576040517f08c379a00000000000000000000000000000000000000000000000000000000081526004016113ad90614c69565b60405180910390fd5b600882815481106113ca576113c9614b5c565b5b90600052602060002001549050919050565b6000806113e883612b4b565b9050600073ffffffffffffffffffffffffffffffffffffffff168173ffffffffffffffffffffffffffffffffffffffff1603611459576040517f08c379a000000000000000000000000000000000000000000000000000000000815260040161145090614cd5565b60405180910390fd5b80915050919050565b600e60205280600052604060002060009150905080600001549080600101805461148b9061486c565b80601f01602080910402602001604051908101604052809291908181526020018280546114b79061486c565b80156115045780601f106114d957610100808354040283529160200191611504565b820191906000526020600020905b8154815290600101906020018083116114e757829003601f168201915b5050505050908060020180546115199061486c565b80601f01602080910402602001604051908101604052809291908181526020018280546115459061486c565b80156115925780601f1061156757610100808354040283529160200191611592565b820191906000526020600020905b81548152906001019060200180831161157557829003601f168201915b5050505050908060030180546115a79061486c565b80601f01602080910402602001604051908101604052809291908181526020018280546115d39061486c565b80156116205780601f106115f557610100808354040283529160200191611620565b820191906000526020600020905b81548152906001019060200180831161160357829003601f168201915b5050505050905084565b6000601160009054906101000a900473ffffffffffffffffffffffffffffffffffffffff1673ffffffffffffffffffffffffffffffffffffffff163373ffffffffffffffffffffffffffffffffffffffff16146116bc576040517f08c379a00000000000000000000000000000000000000000000000000000000081526004016116b390614d41565b60405180910390fd5b6116c6600b612b88565b60006116d2600b612b9e565b90506000600c6000600a548152602001908152602001600020819055506116f93382612bac565b6000604051806080016040528083815260200187815260200186815260200185815250905080600e60008481526020019081526020016000206000820151816000015560208201518160010190816117519190614f0d565b5060408201518160020190816117679190614f0d565b50606082015181600301908161177d9190614f0d565b5090505060108190806001815401808255809150506001900390600052602060002090600402016000909190919091506000820151816000015560208201518160010190816117cc9190614f0d565b5060408201518160020190816117e29190614f0d565b5060608201518160030190816117f89190614f0d565b5050506012600081548092919061180e906149f0565b919050555081925050509392505050565b60008073ffffffffffffffffffffffffffffffffffffffff168273ffffffffffffffffffffffffffffffffffffffff160361188f576040517f08c379a000000000000000000000000000000000000000000000000000000000815260040161188690615051565b60405180910390fd5b600360008373ffffffffffffffffffffffffffffffffffffffff1673ffffffffffffffffffffffffffffffffffffffff168152602001908152602001600020549050919050565b6060600060135467ffffffffffffffff8111156118f6576118f5613e49565b5b6040519080825280602002602001820160405280156119245781602001602082028036833780820191505090505b509050600080600190505b6013548110156119985784600f60008381526020019081526020016000206001015403611985578083838151811061196a57611969614b5c565b5b6020026020010181815250508180611981906149f0565b9250505b8080611990906149f0565b91505061192f565b5060008167ffffffffffffffff8111156119b5576119b4613e49565b5b6040519080825280602002602001820160405280156119e35781602001602082028036833780820191505090505b50905060005b82811015611a3e57838181518110611a0457611a03614b5c565b5b6020026020010151828281518110611a1f57611a1e614b5c565b5b6020026020010181815250508080611a36906149f0565b9150506119e9565b50809350505050919050565b601160009054906101000a900473ffffffffffffffffffffffffffffffffffffffff1681565b600f602052806000526040600020600091509050806000015490806001015490806002018054611a9f9061486c565b80601f0160208091040260200160405190810160405280929190818152602001828054611acb9061486c565b8015611b185780601f10611aed57610100808354040283529160200191611b18565b820191906000526020600020905b815481529060010190602001808311611afb57829003601f168201915b5050505050908060030160009054906101000a900473ffffffffffffffffffffffffffffffffffffffff16905084565b606060018054611b579061486c565b80601f0160208091040260200160405190810160405280929190818152602001828054611b839061486c565b8015611bd05780601f10611ba557610100808354040283529160200191611bd0565b820191906000526020600020905b815481529060010190602001808311611bb357829003601f168201915b5050505050905090565b60606000611c09601160009054906101000a900473ffffffffffffffffffffffffffffffffffffffff1661181f565b905060008167ffffffffffffffff811115611c2757611c26613e49565b5b604051908082528060200260200182016040528015611c555781602001602082028036833780820191505090505b50905060005b82811015611cc157611c8f601160009054906101000a900473ffffffffffffffffffffffffffffffffffffffff1682610b99565b828281518110611ca257611ca1614b5c565b5b6020026020010181815250508080611cb9906149f0565b915050611c5b565b50809250505090565b600083118015611cdb575060125483105b611d1a576040517f08c379a0000000000000000000000000000000000000000000000000000000008152600401611d11906150bd565b60405180910390fd5b6000601354905060405180608001604052808281526020018581526020018481526020018373ffffffffffffffffffffffffffffffffffffffff16815250600f600083815260200190815260200160002060008201518160000155602082015181600101556040820151816002019081611d949190614f0d565b5060608201518160030160006101000a81548173ffffffffffffffffffffffffffffffffffffffff021916908373ffffffffffffffffffffffffffffffffffffffff16021790555090505060136000815480929190611df2906149f0565b919050555050505050565b60108181548110611e0d57600080fd5b9060005260206000209060040201600091509050806000015490806001018054611e369061486c565b80601f0160208091040260200160405190810160405280929190818152602001828054611e629061486c565b8015611eaf5780601f10611e8457610100808354040283529160200191611eaf565b820191906000526020600020905b815481529060010190602001808311611e9257829003601f168201915b505050505090806002018054611ec49061486c565b80601f0160208091040260200160405190810160405280929190818152602001828054611ef09061486c565b8015611f3d5780601f10611f1257610100808354040283529160200191611f3d565b820191906000526020600020905b815481529060010190602001808311611f2057829003601f168201915b505050505090806003018054611f529061486c565b80601f0160208091040260200160405190810160405280929190818152602001828054611f7e9061486c565b8015611fcb5780601f10611fa057610100808354040283529160200191611fcb565b820191906000526020600020905b815481529060010190602001808311611fae57829003601f168201915b5050505050905084565b611fe7611fe06126fc565b8383612bca565b5050565b601160009054906101000a900473ffffffffffffffffffffffffffffffffffffffff1673ffffffffffffffffffffffffffffffffffffffff163373ffffffffffffffffffffffffffffffffffffffff161461207b576040517f08c379a000000000000000000000000000000000000000000000000000000000815260040161207290614d41565b60405180910390fd5b600d6000838152602001908152602001600020819080600181540180825580915050600190039060005260206000200160009091909190915090816120c09190614f0d565b505050565b6060600d6000838152602001908152602001600020805480602002602001604051908101604052809291908181526020016000905b828210156121a65783829060005260206000200180546121199061486c565b80601f01602080910402602001604051908101604052809291908181526020018280546121459061486c565b80156121925780601f1061216757610100808354040283529160200191612192565b820191906000526020600020905b81548152906001019060200180831161217557829003601f168201915b5050505050815260200190600101906120fa565b505050509050919050565b6121c26121bc6126fc565b836127bd565b612201576040517f08c379a00000000000000000000000000000000000000000000000000000000081526004016121f890614aaa565b60405180910390fd5b61220d84848484612d36565b50505050565b606061221e826126b1565b6000612228612d92565b905060008151116122485760405180602001604052806000815250612273565b8061225284612da9565b604051602001612263929190615119565b6040516020818303038152906040525b915050919050565b6000600560008473ffffffffffffffffffffffffffffffffffffffff1673ffffffffffffffffffffffffffffffffffffffff16815260200190815260200160002060008373ffffffffffffffffffffffffffffffffffffffff1673ffffffffffffffffffffffffffffffffffffffff16815260200190815260200160002060009054906101000a900460ff16905092915050565b6000600c6000600a548152602001908152602001600020549050600073ffffffffffffffffffffffffffffffffffffffff16601160009054906101000a900473ffffffffffffffffffffffffffffffffffffffff1673ffffffffffffffffffffffffffffffffffffffff16036123ba576040517f08c379a00000000000000000000000000000000000000000000000000000000081526004016123b190615189565b60405180910390fd5b601160009054906101000a900473ffffffffffffffffffffffffffffffffffffffff1673ffffffffffffffffffffffffffffffffffffffff163373ffffffffffffffffffffffffffffffffffffffff160361244a576040517f08c379a0000000000000000000000000000000000000000000000000000000008152600401612441906151f5565b60405180910390fd5b8034101561248d576040517f08c379a000000000000000000000000000000000000000000000000000000000815260040161248490615287565b60405180910390fd5b6000601160009054906101000a900473ffffffffffffffffffffffffffffffffffffffff1690508073ffffffffffffffffffffffffffffffffffffffff166108fc839081150290604051600060405180830381858888f193505050501580156124fa573d6000803e3d6000fd5b508134111561255c5760003390508073ffffffffffffffffffffffffffffffffffffffff166108fc843461252e91906152a7565b9081150290604051600060405180830381858888f19350505050158015612559573d6000803e3d6000fd5b50505b612589601160009054906101000a900473ffffffffffffffffffffffffffffffffffffffff163385612852565b33601160006101000a81548173ffffffffffffffffffffffffffffffffffffffff021916908373ffffffffffffffffffffffffffffffffffffffff160217905550505050565b60007f80ac58cd000000000000000000000000000000000000000000000000000000007bffffffffffffffffffffffffffffffffffffffffffffffffffffffff1916827bffffffffffffffffffffffffffffffffffffffffffffffffffffffff1916148061269a57507f5b5e139f000000000000000000000000000000000000000000000000000000007bffffffffffffffffffffffffffffffffffffffffffffffffffffffff1916827bffffffffffffffffffffffffffffffffffffffffffffffffffffffff1916145b806126aa57506126a982612e77565b5b9050919050565b6126ba81612ee1565b6126f9576040517f08c379a00000000000000000000000000000000000000000000000000000000081526004016126f090614cd5565b60405180910390fd5b50565b600033905090565b816004600083815260200190815260200160002060006101000a81548173ffffffffffffffffffffffffffffffffffffffff021916908373ffffffffffffffffffffffffffffffffffffffff160217905550808273ffffffffffffffffffffffffffffffffffffffff16612777836113dc565b73ffffffffffffffffffffffffffffffffffffffff167f8c5be1e5ebec7d5bd14f71427d1e84f3dd0314c0f7b2291e5b200ac8c7c3b92560405160405180910390a45050565b6000806127c9836113dc565b90508073ffffffffffffffffffffffffffffffffffffffff168473ffffffffffffffffffffffffffffffffffffffff16148061280b575061280a818561227b565b5b8061284957508373ffffffffffffffffffffffffffffffffffffffff1661283184610972565b73ffffffffffffffffffffffffffffffffffffffff16145b91505092915050565b8273ffffffffffffffffffffffffffffffffffffffff16612872826113dc565b73ffffffffffffffffffffffffffffffffffffffff16146128c8576040517f08c379a00000000000000000000000000000000000000000000000000000000081526004016128bf9061534d565b60405180910390fd5b600073ffffffffffffffffffffffffffffffffffffffff168273ffffffffffffffffffffffffffffffffffffffff1603612937576040517f08c379a000000000000000000000000000000000000000000000000000000000815260040161292e906153df565b60405180910390fd5b6129448383836001612f22565b8273ffffffffffffffffffffffffffffffffffffffff16612964826113dc565b73ffffffffffffffffffffffffffffffffffffffff16146129ba576040517f08c379a00000000000000000000000000000000000000000000000000000000081526004016129b19061534d565b60405180910390fd5b6004600082815260200190815260200160002060006101000a81549073ffffffffffffffffffffffffffffffffffffffff02191690556001600360008573ffffffffffffffffffffffffffffffffffffffff1673ffffffffffffffffffffffffffffffffffffffff168152602001908152602001600020600082825403925050819055506001600360008473ffffffffffffffffffffffffffffffffffffffff1673ffffffffffffffffffffffffffffffffffffffff16815260200190815260200160002060008282540192505081905550816002600083815260200190815260200160002060006101000a81548173ffffffffffffffffffffffffffffffffffffffff021916908373ffffffffffffffffffffffffffffffffffffffff160217905550808273ffffffffffffffffffffffffffffffffffffffff168473ffffffffffffffffffffffffffffffffffffffff167fddf252ad1be2c89b69c2b068fc378daa952ba7f163c4a11628f55a4df523b3ef60405160405180910390a4612b468383836001613080565b505050565b60006002600083815260200190815260200160002060009054906101000a900473ffffffffffffffffffffffffffffffffffffffff169050919050565b6001816000016000828254019250508190555050565b600081600001549050919050565b612bc6828260405180602001604052806000815250613086565b5050565b8173ffffffffffffffffffffffffffffffffffffffff168373ffffffffffffffffffffffffffffffffffffffff1603612c38576040517f08c379a0000000000000000000000000000000000000000000000000000000008152600401612c2f9061544b565b60405180910390fd5b80600560008573ffffffffffffffffffffffffffffffffffffffff1673ffffffffffffffffffffffffffffffffffffffff16815260200190815260200160002060008473ffffffffffffffffffffffffffffffffffffffff1673ffffffffffffffffffffffffffffffffffffffff16815260200190815260200160002060006101000a81548160ff0219169083151502179055508173ffffffffffffffffffffffffffffffffffffffff168373ffffffffffffffffffffffffffffffffffffffff167f17307eab39ab6107e8899845ad3d59bd9653f200f220920489ca2b5937696c3183604051612d299190613a21565b60405180910390a3505050565b612d41848484612852565b612d4d848484846130e1565b612d8c576040517f08c379a0000000000000000000000000000000000000000000000000000000008152600401612d83906154dd565b60405180910390fd5b50505050565b606060405180602001604052806000815250905090565b606060006001612db884613268565b01905060008167ffffffffffffffff811115612dd757612dd6613e49565b5b6040519080825280601f01601f191660200182016040528015612e095781602001600182028036833780820191505090505b509050600082602001820190505b600115612e6c578080600190039150507f3031323334353637383961626364656600000000000000000000000000000000600a86061a8153600a8581612e6057612e5f6154fd565b5b04945060008503612e17575b819350505050919050565b60007f01ffc9a7000000000000000000000000000000000000000000000000000000007bffffffffffffffffffffffffffffffffffffffffffffffffffffffff1916827bffffffffffffffffffffffffffffffffffffffffffffffffffffffff1916149050919050565b60008073ffffffffffffffffffffffffffffffffffffffff16612f0383612b4b565b73ffffffffffffffffffffffffffffffffffffffff1614159050919050565b612f2e848484846133bb565b6001811115612f72576040517f08c379a0000000000000000000000000000000000000000000000000000000008152600401612f699061559e565b60405180910390fd5b6000829050600073ffffffffffffffffffffffffffffffffffffffff168573ffffffffffffffffffffffffffffffffffffffff1603612fb957612fb4816133c1565b612ff8565b8373ffffffffffffffffffffffffffffffffffffffff168573ffffffffffffffffffffffffffffffffffffffff1614612ff757612ff6858261340a565b5b5b600073ffffffffffffffffffffffffffffffffffffffff168473ffffffffffffffffffffffffffffffffffffffff160361303a5761303581613577565b613079565b8473ffffffffffffffffffffffffffffffffffffffff168473ffffffffffffffffffffffffffffffffffffffff1614613078576130778482613648565b5b5b5050505050565b50505050565b61309083836136c7565b61309d60008484846130e1565b6130dc576040517f08c379a00000000000000000000000000000000000000000000000000000000081526004016130d3906154dd565b60405180910390fd5b505050565b60006131028473ffffffffffffffffffffffffffffffffffffffff166138e4565b1561325b578373ffffffffffffffffffffffffffffffffffffffff1663150b7a0261312b6126fc565b8786866040518563ffffffff1660e01b815260040161314d9493929190615613565b6020604051808303816000875af192505050801561318957506040513d601f19601f820116820180604052508101906131869190615674565b60015b61320b573d80600081146131b9576040519150601f19603f3d011682016040523d82523d6000602084013e6131be565b606091505b506000815103613203576040517f08c379a00000000000000000000000000000000000000000000000000000000081526004016131fa906154dd565b60405180910390fd5b805181602001fd5b63150b7a0260e01b7bffffffffffffffffffffffffffffffffffffffffffffffffffffffff1916817bffffffffffffffffffffffffffffffffffffffffffffffffffffffff191614915050613260565b600190505b949350505050565b600080600090507a184f03e93ff9f4daa797ed6e38ed64bf6a1f01000000000000000083106132c6577a184f03e93ff9f4daa797ed6e38ed64bf6a1f01000000000000000083816132bc576132bb6154fd565b5b0492506040810190505b6d04ee2d6d415b85acef81000000008310613303576d04ee2d6d415b85acef810000000083816132f9576132f86154fd565b5b0492506020810190505b662386f26fc10000831061333257662386f26fc100008381613328576133276154fd565b5b0492506010810190505b6305f5e100831061335b576305f5e1008381613351576133506154fd565b5b0492506008810190505b6127108310613380576127108381613376576133756154fd565b5b0492506004810190505b606483106133a35760648381613399576133986154fd565b5b0492506002810190505b600a83106133b2576001810190505b80915050919050565b50505050565b6008805490506009600083815260200190815260200160002081905550600881908060018154018082558091505060019003906000526020600020016000909190919091505550565b600060016134178461181f565b61342191906152a7565b9050600060076000848152602001908152602001600020549050818114613506576000600660008673ffffffffffffffffffffffffffffffffffffffff1673ffffffffffffffffffffffffffffffffffffffff168152602001908152602001600020600084815260200190815260200160002054905080600660008773ffffffffffffffffffffffffffffffffffffffff1673ffffffffffffffffffffffffffffffffffffffff168152602001908152602001600020600084815260200190815260200160002081905550816007600083815260200190815260200160002081905550505b6007600084815260200190815260200160002060009055600660008573ffffffffffffffffffffffffffffffffffffffff1673ffffffffffffffffffffffffffffffffffffffff16815260200190815260200160002060008381526020019081526020016000206000905550505050565b6000600160088054905061358b91906152a7565b90506000600960008481526020019081526020016000205490506000600883815481106135bb576135ba614b5c565b5b9060005260206000200154905080600883815481106135dd576135dc614b5c565b5b90600052602060002001819055508160096000838152602001908152602001600020819055506009600085815260200190815260200160002060009055600880548061362c5761362b6156a1565b5b6001900381819060005260206000200160009055905550505050565b60006136538361181f565b905081600660008573ffffffffffffffffffffffffffffffffffffffff1673ffffffffffffffffffffffffffffffffffffffff168152602001908152602001600020600083815260200190815260200160002081905550806007600084815260200190815260200160002081905550505050565b600073ffffffffffffffffffffffffffffffffffffffff168273ffffffffffffffffffffffffffffffffffffffff1603613736576040517f08c379a000000000000000000000000000000000000000000000000000000000815260040161372d9061571c565b60405180910390fd5b61373f81612ee1565b1561377f576040517f08c379a000000000000000000000000000000000000000000000000000000000815260040161377690615788565b60405180910390fd5b61378d600083836001612f22565b61379681612ee1565b156137d6576040517f08c379a00000000000000000000000000000000000000000000000000000000081526004016137cd90615788565b60405180910390fd5b6001600360008473ffffffffffffffffffffffffffffffffffffffff1673ffffffffffffffffffffffffffffffffffffffff16815260200190815260200160002060008282540192505081905550816002600083815260200190815260200160002060006101000a81548173ffffffffffffffffffffffffffffffffffffffff021916908373ffffffffffffffffffffffffffffffffffffffff160217905550808273ffffffffffffffffffffffffffffffffffffffff16600073ffffffffffffffffffffffffffffffffffffffff167fddf252ad1be2c89b69c2b068fc378daa952ba7f163c4a11628f55a4df523b3ef60405160405180910390a46138e0600083836001613080565b5050565b6000808273ffffffffffffffffffffffffffffffffffffffff163b119050919050565b6040518060800160405280600081526020016000815260200160608152602001600073ffffffffffffffffffffffffffffffffffffffff1681525090565b6040518060800160405280600081526020016060815260200160608152602001606081525090565b6000604051905090565b600080fd5b600080fd5b60007fffffffff0000000000000000000000000000000000000000000000000000000082169050919050565b6139b681613981565b81146139c157600080fd5b50565b6000813590506139d3816139ad565b92915050565b6000602082840312156139ef576139ee613977565b5b60006139fd848285016139c4565b91505092915050565b60008115159050919050565b613a1b81613a06565b82525050565b6000602082019050613a366000830184613a12565b92915050565b600081519050919050565b600082825260208201905092915050565b60005b83811015613a76578082015181840152602081019050613a5b565b60008484015250505050565b6000601f19601f8301169050919050565b6000613a9e82613a3c565b613aa88185613a47565b9350613ab8818560208601613a58565b613ac181613a82565b840191505092915050565b60006020820190508181036000830152613ae68184613a93565b905092915050565b6000819050919050565b613b0181613aee565b8114613b0c57600080fd5b50565b600081359050613b1e81613af8565b92915050565b600060208284031215613b3a57613b39613977565b5b6000613b4884828501613b0f565b91505092915050565b600073ffffffffffffffffffffffffffffffffffffffff82169050919050565b6000613b7c82613b51565b9050919050565b613b8c81613b71565b82525050565b6000602082019050613ba76000830184613b83565b92915050565b613bb681613b71565b8114613bc157600080fd5b50565b600081359050613bd381613bad565b92915050565b60008060408385031215613bf057613bef613977565b5b6000613bfe85828601613bc4565b9250506020613c0f85828601613b0f565b9150509250929050565b613c2281613aee565b82525050565b6000602082019050613c3d6000830184613c19565b92915050565b600080600060608486031215613c5c57613c5b613977565b5b6000613c6a86828701613bc4565b9350506020613c7b86828701613bc4565b9250506040613c8c86828701613b0f565b9150509250925092565b600081519050919050565b600082825260208201905092915050565b6000819050602082019050919050565b613ccb81613aee565b82525050565b600082825260208201905092915050565b6000613ced82613a3c565b613cf78185613cd1565b9350613d07818560208601613a58565b613d1081613a82565b840191505092915050565b6000608083016000830151613d336000860182613cc2565b5060208301518482036020860152613d4b8282613ce2565b91505060408301518482036040860152613d658282613ce2565b91505060608301518482036060860152613d7f8282613ce2565b9150508091505092915050565b6000613d988383613d1b565b905092915050565b6000602082019050919050565b6000613db882613c96565b613dc28185613ca1565b935083602082028501613dd485613cb2565b8060005b85811015613e105784840389528151613df18582613d8c565b9450613dfc83613da0565b925060208a01995050600181019050613dd8565b50829750879550505050505092915050565b60006020820190508181036000830152613e3c8184613dad565b905092915050565b600080fd5b7f4e487b7100000000000000000000000000000000000000000000000000000000600052604160045260246000fd5b613e8182613a82565b810181811067ffffffffffffffff82111715613ea057613e9f613e49565b5b80604052505050565b6000613eb361396d565b9050613ebf8282613e78565b919050565b600067ffffffffffffffff821115613edf57613ede613e49565b5b602082029050602081019050919050565b600080fd5b6000613f08613f0384613ec4565b613ea9565b90508083825260208201905060208402830185811115613f2b57613f2a613ef0565b5b835b81811015613f545780613f408882613b0f565b845260208401935050602081019050613f2d565b5050509392505050565b600082601f830112613f7357613f72613e44565b5b8135613f83848260208601613ef5565b91505092915050565b600060208284031215613fa257613fa1613977565b5b600082013567ffffffffffffffff811115613fc057613fbf61397c565b5b613fcc84828501613f5e565b91505092915050565b600081519050919050565b600082825260208201905092915050565b6000819050602082019050919050565b61400a81613b71565b82525050565b60006080830160008301516140286000860182613cc2565b50602083015161403b6020860182613cc2565b50604083015184820360408601526140538282613ce2565b91505060608301516140686060860182614001565b508091505092915050565b600061407f8383614010565b905092915050565b6000602082019050919050565b600061409f82613fd5565b6140a98185613fe0565b9350836020820285016140bb85613ff1565b8060005b858110156140f757848403895281516140d88582614073565b94506140e383614087565b925060208a019950506001810190506140bf565b50829750879550505050505092915050565b600060208201905081810360008301526141238184614094565b905092915050565b60006080830160008301516141436000860182613cc2565b506020830151848203602086015261415b8282613ce2565b915050604083015184820360408601526141758282613ce2565b9150506060830151848203606086015261418f8282613ce2565b9150508091505092915050565b600060208201905081810360008301526141b6818461412b565b905092915050565b60006080820190506141d36000830187613c19565b81810360208301526141e58186613a93565b905081810360408301526141f98185613a93565b9050818103606083015261420d8184613a93565b905095945050505050565b600080fd5b600067ffffffffffffffff82111561423857614237613e49565b5b61424182613a82565b9050602081019050919050565b82818337600083830152505050565b600061427061426b8461421d565b613ea9565b90508281526020810184848401111561428c5761428b614218565b5b61429784828561424e565b509392505050565b600082601f8301126142b4576142b3613e44565b5b81356142c484826020860161425d565b91505092915050565b6000806000606084860312156142e6576142e5613977565b5b600084013567ffffffffffffffff8111156143045761430361397c565b5b6143108682870161429f565b935050602084013567ffffffffffffffff8111156143315761433061397c565b5b61433d8682870161429f565b925050604084013567ffffffffffffffff81111561435e5761435d61397c565b5b61436a8682870161429f565b9150509250925092565b60006020828403121561438a57614389613977565b5b600061439884828501613bc4565b91505092915050565b600081519050919050565b600082825260208201905092915050565b6000819050602082019050919050565b60006143d98383613cc2565b60208301905092915050565b6000602082019050919050565b60006143fd826143a1565b61440781856143ac565b9350614412836143bd565b8060005b8381101561444357815161442a88826143cd565b9750614435836143e5565b925050600181019050614416565b5085935050505092915050565b6000602082019050818103600083015261446a81846143f2565b905092915050565b60006080820190506144876000830187613c19565b6144946020830186613c19565b81810360408301526144a68185613a93565b90506144b56060830184613b83565b95945050505050565b6000806000606084860312156144d7576144d6613977565b5b60006144e586828701613b0f565b935050602084013567ffffffffffffffff8111156145065761450561397c565b5b6145128682870161429f565b925050604061452386828701613bc4565b9150509250925092565b61453681613a06565b811461454157600080fd5b50565b6000813590506145538161452d565b92915050565b600080604083850312156145705761456f613977565b5b600061457e85828601613bc4565b925050602061458f85828601614544565b9150509250929050565b600080604083850312156145b0576145af613977565b5b60006145be85828601613b0f565b925050602083013567ffffffffffffffff8111156145df576145de61397c565b5b6145eb8582860161429f565b9150509250929050565b600081519050919050565b600082825260208201905092915050565b6000819050602082019050919050565b600061462d8383613ce2565b905092915050565b6000602082019050919050565b600061464d826145f5565b6146578185614600565b93508360208202850161466985614611565b8060005b858110156146a557848403895281516146868582614621565b945061469183614635565b925060208a0199505060018101905061466d565b50829750879550505050505092915050565b600060208201905081810360008301526146d18184614642565b905092915050565b600067ffffffffffffffff8211156146f4576146f3613e49565b5b6146fd82613a82565b9050602081019050919050565b600061471d614718846146d9565b613ea9565b90508281526020810184848401111561473957614738614218565b5b61474484828561424e565b509392505050565b600082601f83011261476157614760613e44565b5b813561477184826020860161470a565b91505092915050565b6000806000806080858703121561479457614793613977565b5b60006147a287828801613bc4565b94505060206147b387828801613bc4565b93505060406147c487828801613b0f565b925050606085013567ffffffffffffffff8111156147e5576147e461397c565b5b6147f18782880161474c565b91505092959194509250565b6000806040838503121561481457614813613977565b5b600061482285828601613bc4565b925050602061483385828601613bc4565b9150509250929050565b7f4e487b7100000000000000000000000000000000000000000000000000000000600052602260045260246000fd5b6000600282049050600182168061488457607f821691505b6020821081036148975761489661483d565b5b50919050565b7f4552433732313a20617070726f76616c20746f2063757272656e74206f776e6560008201527f7200000000000000000000000000000000000000000000000000000000000000602082015250565b60006148f9602183613a47565b91506149048261489d565b604082019050919050565b60006020820190508181036000830152614928816148ec565b9050919050565b7f4552433732313a20617070726f76652063616c6c6572206973206e6f7420746f60008201527f6b656e206f776e6572206f7220617070726f76656420666f7220616c6c000000602082015250565b600061498b603d83613a47565b91506149968261492f565b604082019050919050565b600060208201905081810360008301526149ba8161497e565b9050919050565b7f4e487b7100000000000000000000000000000000000000000000000000000000600052601160045260246000fd5b60006149fb82613aee565b91507fffffffffffffffffffffffffffffffffffffffffffffffffffffffffffffffff8203614a2d57614a2c6149c1565b5b600182019050919050565b7f4552433732313a2063616c6c6572206973206e6f7420746f6b656e206f776e6560008201527f72206f7220617070726f76656400000000000000000000000000000000000000602082015250565b6000614a94602d83613a47565b9150614a9f82614a38565b604082019050919050565b60006020820190508181036000830152614ac381614a87565b9050919050565b7f455243373231456e756d657261626c653a206f776e657220696e646578206f7560008201527f74206f6620626f756e6473000000000000000000000000000000000000000000602082015250565b6000614b26602b83613a47565b9150614b3182614aca565b604082019050919050565b60006020820190508181036000830152614b5581614b19565b9050919050565b7f4e487b7100000000000000000000000000000000000000000000000000000000600052603260045260246000fd5b7f626f6f6b4944206973206f7574206f662072616e676500000000000000000000600082015250565b6000614bc1601683613a47565b9150614bcc82614b8b565b602082019050919050565b60006020820190508181036000830152614bf081614bb4565b9050919050565b7f455243373231456e756d657261626c653a20676c6f62616c20696e646578206f60008201527f7574206f6620626f756e64730000000000000000000000000000000000000000602082015250565b6000614c53602c83613a47565b9150614c5e82614bf7565b604082019050919050565b60006020820190508181036000830152614c8281614c46565b9050919050565b7f4552433732313a20696e76616c696420746f6b656e2049440000000000000000600082015250565b6000614cbf601883613a47565b9150614cca82614c89565b602082019050919050565b60006020820190508181036000830152614cee81614cb2565b9050919050565b7f43616c6c6572206973206e6f7420746865206f776e65722e0000000000000000600082015250565b6000614d2b601883613a47565b9150614d3682614cf5565b602082019050919050565b60006020820190508181036000830152614d5a81614d1e565b9050919050565b60008190508160005260206000209050919050565b60006020601f8301049050919050565b600082821b905092915050565b600060088302614dc37fffffffffffffffffffffffffffffffffffffffffffffffffffffffffffffffff82614d86565b614dcd8683614d86565b95508019841693508086168417925050509392505050565b6000819050919050565b6000614e0a614e05614e0084613aee565b614de5565b613aee565b9050919050565b6000819050919050565b614e2483614def565b614e38614e3082614e11565b848454614d93565b825550505050565b600090565b614e4d614e40565b614e58818484614e1b565b505050565b5b81811015614e7c57614e71600082614e45565b600181019050614e5e565b5050565b601f821115614ec157614e9281614d61565b614e9b84614d76565b81016020851015614eaa578190505b614ebe614eb685614d76565b830182614e5d565b50505b505050565b600082821c905092915050565b6000614ee460001984600802614ec6565b1980831691505092915050565b6000614efd8383614ed3565b9150826002028217905092915050565b614f1682613a3c565b67ffffffffffffffff811115614f2f57614f2e613e49565b5b614f39825461486c565b614f44828285614e80565b600060209050601f831160018114614f775760008415614f65578287015190505b614f6f8582614ef1565b865550614fd7565b601f198416614f8586614d61565b60005b82811015614fad57848901518255600182019150602085019450602081019050614f88565b86831015614fca5784890151614fc6601f891682614ed3565b8355505b6001600288020188555050505b505050505050565b7f4552433732313a2061646472657373207a65726f206973206e6f74206120766160008201527f6c6964206f776e65720000000000000000000000000000000000000000000000602082015250565b600061503b602983613a47565b915061504682614fdf565b604082019050919050565b6000602082019050818103600083015261506a8161502e565b9050919050565b7f496e76616c696420426f6f6b2049442e00000000000000000000000000000000600082015250565b60006150a7601083613a47565b91506150b282615071565b602082019050919050565b600060208201905081810360008301526150d68161509a565b9050919050565b600081905092915050565b60006150f382613a3c565b6150fd81856150dd565b935061510d818560208601613a58565b80840191505092915050565b600061512582856150e8565b915061513182846150e8565b91508190509392505050565b7f4e4654206973206e6f74206d696e746564207965740000000000000000000000600082015250565b6000615173601583613a47565b915061517e8261513d565b602082019050919050565b600060208201905081810360008301526151a281615166565b9050919050565b7f596f752063616e277420707572636861736520796f7572206f776e204e465400600082015250565b60006151df601f83613a47565b91506151ea826151a9565b602082019050919050565b6000602082019050818103600083015261520e816151d2565b9050919050565b7f496e73756666696369656e742066756e647320746f207075726368617365207460008201527f6865204e46540000000000000000000000000000000000000000000000000000602082015250565b6000615271602683613a47565b915061527c82615215565b604082019050919050565b600060208201905081810360008301526152a081615264565b9050919050565b60006152b282613aee565b91506152bd83613aee565b92508282039050818111156152d5576152d46149c1565b5b92915050565b7f4552433732313a207472616e736665722066726f6d20696e636f72726563742060008201527f6f776e6572000000000000000000000000000000000000000000000000000000602082015250565b6000615337602583613a47565b9150615342826152db565b604082019050919050565b600060208201905081810360008301526153668161532a565b9050919050565b7f4552433732313a207472616e7366657220746f20746865207a65726f2061646460008201527f7265737300000000000000000000000000000000000000000000000000000000602082015250565b60006153c9602483613a47565b91506153d48261536d565b604082019050919050565b600060208201905081810360008301526153f8816153bc565b9050919050565b7f4552433732313a20617070726f766520746f2063616c6c657200000000000000600082015250565b6000615435601983613a47565b9150615440826153ff565b602082019050919050565b6000602082019050818103600083015261546481615428565b9050919050565b7f4552433732313a207472616e7366657220746f206e6f6e20455243373231526560008201527f63656976657220696d706c656d656e7465720000000000000000000000000000602082015250565b60006154c7603283613a47565b91506154d28261546b565b604082019050919050565b600060208201905081810360008301526154f6816154ba565b9050919050565b7f4e487b7100000000000000000000000000000000000000000000000000000000600052601260045260246000fd5b7f455243373231456e756d657261626c653a20636f6e736563757469766520747260008201527f616e7366657273206e6f7420737570706f727465640000000000000000000000602082015250565b6000615588603583613a47565b91506155938261552c565b604082019050919050565b600060208201905081810360008301526155b78161557b565b9050919050565b600081519050919050565b600082825260208201905092915050565b60006155e5826155be565b6155ef81856155c9565b93506155ff818560208601613a58565b61560881613a82565b840191505092915050565b60006080820190506156286000830187613b83565b6156356020830186613b83565b6156426040830185613c19565b818103606083015261565481846155da565b905095945050505050565b60008151905061566e816139ad565b92915050565b60006020828403121561568a57615689613977565b5b60006156988482850161565f565b91505092915050565b7f4e487b7100000000000000000000000000000000000000000000000000000000600052603160045260246000fd5b7f4552433732313a206d696e7420746f20746865207a65726f2061646472657373600082015250565b6000615706602083613a47565b9150615711826156d0565b602082019050919050565b60006020820190508181036000830152615735816156f9565b9050919050565b7f4552433732313a20746f6b656e20616c7265616479206d696e74656400000000600082015250565b6000615772601c83613a47565b915061577d8261573c565b602082019050919050565b600060208201905081810360008301526157a181615765565b905091905056fea2646970667358221220bdcaef99a0874b42019799276f599ec1869d3c6413fc85e47afc2bc718829d2964736f6c63430008120033",
  "linkReferences": {},
  "deployedLinkReferences": {}
}