{
  "_format": "hh-sol-artifact-1",
  "contractName": "MintNFT",
  "sourceName": "contracts/MintNFT.sol",
  "abi": [
    {
      "inputs": [],
      "stateMutability": "nonpayable",
      "type": "constructor"
    },
    {
      "anonymous": false,
      "inputs": [
        {
          "indexed": true,
          "internalType": "address",
          "name": "owner",
          "type": "address"
        },
        {
          "indexed": true,
          "internalType": "address",
          "name": "approved",
          "type": "address"
        },
        {
          "indexed": true,
          "internalType": "uint256",
          "name": "tokenId",
          "type": "uint256"
        }
      ],
      "name": "Approval",
      "type": "event"
    },
    {
      "anonymous": false,
      "inputs": [
        {
          "indexed": true,
          "internalType": "address",
          "name": "owner",
          "type": "address"
        },
        {
          "indexed": true,
          "internalType": "address",
          "name": "operator",
          "type": "address"
        },
        {
          "indexed": false,
          "internalType": "bool",
          "name": "approved",
          "type": "bool"
        }
      ],
      "name": "ApprovalForAll",
      "type": "event"
    },
    {
      "anonymous": false,
      "inputs": [
        {
          "indexed": true,
          "internalType": "address",
          "name": "from",
          "type": "address"
        },
        {
          "indexed": true,
          "internalType": "address",
          "name": "to",
          "type": "address"
        },
        {
          "indexed": true,
          "internalType": "uint256",
          "name": "tokenId",
          "type": "uint256"
        }
      ],
      "name": "Transfer",
      "type": "event"
    },
    {
      "inputs": [
        {
          "internalType": "string",
          "name": "_title",
          "type": "string"
        }
      ],
      "name": "addBook",
      "outputs": [
        {
          "internalType": "uint256",
          "name": "",
          "type": "uint256"
        }
      ],
      "stateMutability": "nonpayable",
      "type": "function"
    },
    {
      "inputs": [
        {
          "internalType": "uint256",
          "name": "_bookId",
          "type": "uint256"
        },
        {
          "internalType": "string",
          "name": "_content",
          "type": "string"
        },
        {
          "internalType": "address",
          "name": "_reviewer",
          "type": "address"
        }
      ],
      "name": "addComment",
      "outputs": [],
      "stateMutability": "nonpayable",
      "type": "function"
    },
    {
      "inputs": [
        {
          "internalType": "uint256",
          "name": "_bookId",
          "type": "uint256"
        },
        {
          "internalType": "string",
          "name": "_blockAddress",
          "type": "string"
        }
      ],
      "name": "addVerifiedBlockAddress",
      "outputs": [],
      "stateMutability": "nonpayable",
      "type": "function"
    },
    {
      "inputs": [
        {
          "internalType": "address",
          "name": "to",
          "type": "address"
        },
        {
          "internalType": "uint256",
          "name": "tokenId",
          "type": "uint256"
        }
      ],
      "name": "approve",
      "outputs": [],
      "stateMutability": "nonpayable",
      "type": "function"
    },
    {
      "inputs": [
        {
          "internalType": "address",
          "name": "owner",
          "type": "address"
        }
      ],
      "name": "balanceOf",
      "outputs": [
        {
          "internalType": "uint256",
          "name": "",
          "type": "uint256"
        }
      ],
      "stateMutability": "view",
      "type": "function"
    },
    {
      "inputs": [
        {
          "internalType": "uint256",
          "name": "",
          "type": "uint256"
        }
      ],
      "name": "books",
      "outputs": [
        {
          "internalType": "uint256",
          "name": "id",
          "type": "uint256"
        },
        {
          "internalType": "string",
          "name": "title",
          "type": "string"
        }
      ],
      "stateMutability": "view",
      "type": "function"
    },
    {
      "inputs": [
        {
          "internalType": "uint256",
          "name": "",
          "type": "uint256"
        }
      ],
      "name": "comments",
      "outputs": [
        {
          "internalType": "uint256",
          "name": "id",
          "type": "uint256"
        },
        {
          "internalType": "uint256",
          "name": "bookId",
          "type": "uint256"
        },
        {
          "internalType": "string",
          "name": "content",
          "type": "string"
        },
        {
          "internalType": "address",
          "name": "reviewer",
          "type": "address"
        }
      ],
      "stateMutability": "view",
      "type": "function"
    },
    {
      "inputs": [
        {
          "internalType": "uint256",
          "name": "tokenId",
          "type": "uint256"
        }
      ],
      "name": "getApproved",
      "outputs": [
        {
          "internalType": "address",
          "name": "",
          "type": "address"
        }
      ],
      "stateMutability": "view",
      "type": "function"
    },
    {
      "inputs": [
        {
          "internalType": "uint256",
          "name": "_bookId",
          "type": "uint256"
        }
      ],
      "name": "getCommentsByBook",
      "outputs": [
        {
          "internalType": "uint256[]",
          "name": "",
          "type": "uint256[]"
        }
      ],
      "stateMutability": "view",
      "type": "function"
    },
    {
      "inputs": [
        {
          "internalType": "uint256[]",
          "name": "ids",
          "type": "uint256[]"
        }
      ],
      "name": "getCommentsByIds",
      "outputs": [
        {
          "components": [
            {
              "internalType": "uint256",
              "name": "id",
              "type": "uint256"
            },
            {
              "internalType": "uint256",
              "name": "bookId",
              "type": "uint256"
            },
            {
              "internalType": "string",
              "name": "content",
              "type": "string"
            },
            {
              "internalType": "address",
              "name": "reviewer",
              "type": "address"
            }
          ],
          "internalType": "struct MintNFT.Comment[]",
          "name": "",
          "type": "tuple[]"
        }
      ],
      "stateMutability": "view",
      "type": "function"
    },
    {
      "inputs": [
        {
          "internalType": "address",
          "name": "owner",
          "type": "address"
        },
        {
          "internalType": "address",
          "name": "operator",
          "type": "address"
        }
      ],
      "name": "isApprovedForAll",
      "outputs": [
        {
          "internalType": "bool",
          "name": "",
          "type": "bool"
        }
      ],
      "stateMutability": "view",
      "type": "function"
    },
    {
      "inputs": [
        {
          "internalType": "uint256",
          "name": "_bookId",
          "type": "uint256"
        }
      ],
      "name": "isMintNFTed",
      "outputs": [
        {
          "internalType": "bool",
          "name": "",
          "type": "bool"
        }
      ],
      "stateMutability": "view",
      "type": "function"
    },
    {
      "inputs": [],
      "name": "name",
      "outputs": [
        {
          "internalType": "string",
          "name": "",
          "type": "string"
        }
      ],
      "stateMutability": "view",
      "type": "function"
    },
    {
      "inputs": [],
      "name": "owner",
      "outputs": [
        {
          "internalType": "address",
          "name": "",
          "type": "address"
        }
      ],
      "stateMutability": "view",
      "type": "function"
    },
    {
      "inputs": [
        {
          "internalType": "uint256",
          "name": "tokenId",
          "type": "uint256"
        }
      ],
      "name": "ownerOf",
      "outputs": [
        {
          "internalType": "address",
          "name": "",
          "type": "address"
        }
      ],
      "stateMutability": "view",
      "type": "function"
    },
    {
      "inputs": [
        {
          "internalType": "uint256",
          "name": "_tokenId",
          "type": "uint256"
        }
      ],
      "name": "purchase",
      "outputs": [],
      "stateMutability": "nonpayable",
      "type": "function"
    },
    {
      "inputs": [
        {
          "internalType": "address",
          "name": "from",
          "type": "address"
        },
        {
          "internalType": "address",
          "name": "to",
          "type": "address"
        },
        {
          "internalType": "uint256",
          "name": "tokenId",
          "type": "uint256"
        }
      ],
      "name": "safeTransferFrom",
      "outputs": [],
      "stateMutability": "nonpayable",
      "type": "function"
    },
    {
      "inputs": [
        {
          "internalType": "address",
          "name": "from",
          "type": "address"
        },
        {
          "internalType": "address",
          "name": "to",
          "type": "address"
        },
        {
          "internalType": "uint256",
          "name": "tokenId",
          "type": "uint256"
        },
        {
          "internalType": "bytes",
          "name": "data",
          "type": "bytes"
        }
      ],
      "name": "safeTransferFrom",
      "outputs": [],
      "stateMutability": "nonpayable",
      "type": "function"
    },
    {
      "inputs": [
        {
          "internalType": "address",
          "name": "operator",
          "type": "address"
        },
        {
          "internalType": "bool",
          "name": "approved",
          "type": "bool"
        }
      ],
      "name": "setApprovalForAll",
      "outputs": [],
      "stateMutability": "nonpayable",
      "type": "function"
    },
    {
      "inputs": [
        {
          "internalType": "bytes4",
          "name": "interfaceId",
          "type": "bytes4"
        }
      ],
      "name": "supportsInterface",
      "outputs": [
        {
          "internalType": "bool",
          "name": "",
          "type": "bool"
        }
      ],
      "stateMutability": "view",
      "type": "function"
    },
    {
      "inputs": [],
      "name": "symbol",
      "outputs": [
        {
          "internalType": "string",
          "name": "",
          "type": "string"
        }
      ],
      "stateMutability": "view",
      "type": "function"
    },
    {
      "inputs": [
        {
          "internalType": "uint256",
          "name": "index",
          "type": "uint256"
        }
      ],
      "name": "tokenByIndex",
      "outputs": [
        {
          "internalType": "uint256",
          "name": "",
          "type": "uint256"
        }
      ],
      "stateMutability": "view",
      "type": "function"
    },
    {
      "inputs": [],
      "name": "tokenId",
      "outputs": [
        {
          "internalType": "uint256",
          "name": "",
          "type": "uint256"
        }
      ],
      "stateMutability": "view",
      "type": "function"
    },
    {
      "inputs": [
        {
          "internalType": "address",
          "name": "owner",
          "type": "address"
        },
        {
          "internalType": "uint256",
          "name": "index",
          "type": "uint256"
        }
      ],
      "name": "tokenOfOwnerByIndex",
      "outputs": [
        {
          "internalType": "uint256",
          "name": "",
          "type": "uint256"
        }
      ],
      "stateMutability": "view",
      "type": "function"
    },
    {
      "inputs": [
        {
          "internalType": "uint256",
          "name": "tokenId",
          "type": "uint256"
        }
      ],
      "name": "tokenURI",
      "outputs": [
        {
          "internalType": "string",
          "name": "",
          "type": "string"
        }
      ],
      "stateMutability": "view",
      "type": "function"
    },
    {
      "inputs": [],
      "name": "totalSupply",
      "outputs": [
        {
          "internalType": "uint256",
          "name": "",
          "type": "uint256"
        }
      ],
      "stateMutability": "view",
      "type": "function"
    },
    {
      "inputs": [
        {
          "internalType": "address",
          "name": "from",
          "type": "address"
        },
        {
          "internalType": "address",
          "name": "to",
          "type": "address"
        },
        {
          "internalType": "uint256",
          "name": "tokenId",
          "type": "uint256"
        }
      ],
      "name": "transferFrom",
      "outputs": [],
      "stateMutability": "nonpayable",
      "type": "function"
    }
  ],
  "bytecode": "0x6080604052600160105560016011553480156200001b57600080fd5b506040518060400160405280600781526020017f4d696e744e4654000000000000000000000000000000000000000000000000008152506040518060400160405280600781526020017f4d696e744e46540000000000000000000000000000000000000000000000000081525081600090816200009991906200036f565b508060019081620000ab91906200036f565b50505033600f60006101000a81548173ffffffffffffffffffffffffffffffffffffffff021916908373ffffffffffffffffffffffffffffffffffffffff16021790555062000456565b600081519050919050565b7f4e487b7100000000000000000000000000000000000000000000000000000000600052604160045260246000fd5b7f4e487b7100000000000000000000000000000000000000000000000000000000600052602260045260246000fd5b600060028204905060018216806200017757607f821691505b6020821081036200018d576200018c6200012f565b5b50919050565b60008190508160005260206000209050919050565b60006020601f8301049050919050565b600082821b905092915050565b600060088302620001f77fffffffffffffffffffffffffffffffffffffffffffffffffffffffffffffffff82620001b8565b620002038683620001b8565b95508019841693508086168417925050509392505050565b6000819050919050565b6000819050919050565b6000620002506200024a62000244846200021b565b62000225565b6200021b565b9050919050565b6000819050919050565b6200026c836200022f565b620002846200027b8262000257565b848454620001c5565b825550505050565b600090565b6200029b6200028c565b620002a881848462000261565b505050565b5b81811015620002d057620002c460008262000291565b600181019050620002ae565b5050565b601f8211156200031f57620002e98162000193565b620002f484620001a8565b8101602085101562000304578190505b6200031c6200031385620001a8565b830182620002ad565b50505b505050565b600082821c905092915050565b6000620003446000198460080262000324565b1980831691505092915050565b60006200035f838362000331565b9150826002028217905092915050565b6200037a82620000f5565b67ffffffffffffffff81111562000396576200039562000100565b5b620003a282546200015e565b620003af828285620002d4565b600060209050601f831160018114620003e75760008415620003d2578287015190505b620003de858262000351565b8655506200044e565b601f198416620003f78662000193565b60005b828110156200042157848901518255600182019150602085019450602081019050620003fa565b868310156200044157848901516200043d601f89168262000331565b8355505b6001600288020188555050505b505050505050565b61457780620004666000396000f3fe608060405234801561001057600080fd5b50600436106101a95760003560e01c80636352211e116100f95780639647b8df11610097578063b88d4fde11610071578063b88d4fde14610530578063c87b56dd1461054c578063e985e9c51461057c578063efef39a1146105ac576101a9565b80639647b8df146104dc578063a22cb465146104f8578063ad18da3414610514576101a9565b806386016b17116100d357806386016b171461043d5780638da5cb5b1461046d5780638ebb4c151461048b57806395d89b41146104be576101a9565b80636352211e146103ac57806368744046146103dc57806370a082311461040d576101a9565b80631b18432611610166578063360d03a111610140578063360d03a1146103005780633bc5f48a1461033057806342842e0e146103605780634f6ccce71461037c576101a9565b80631b1843261461028457806323b872dd146102b45780632f745c59146102d0576101a9565b806301ffc9a7146101ae57806306fdde03146101de578063081812fc146101fc578063095ea7b31461022c57806317d70f7c1461024857806318160ddd14610266575b600080fd5b6101c860048036038101906101c39190612bc4565b6105c8565b6040516101d59190612c0c565b60405180910390f35b6101e6610642565b6040516101f39190612cb7565b60405180910390f35b61021660048036038101906102119190612d0f565b6106d4565b6040516102239190612d7d565b60405180910390f35b61024660048036038101906102419190612dc4565b61071a565b005b610250610831565b60405161025d9190612e13565b60405180910390f35b61026e610837565b60405161027b9190612e13565b60405180910390f35b61029e60048036038101906102999190612d0f565b610844565b6040516102ab9190612c0c565b60405180910390f35b6102ce60048036038101906102c99190612e2e565b61089b565b005b6102ea60048036038101906102e59190612dc4565b6108fb565b6040516102f79190612e13565b60405180910390f35b61031a60048036038101906103159190612fc9565b6109a0565b604051610327919061319f565b60405180910390f35b61034a60048036038101906103459190613276565b610c4b565b6040516103579190612e13565b60405180910390f35b61037a60048036038101906103759190612e2e565b610d53565b005b61039660048036038101906103919190612d0f565b610d73565b6040516103a39190612e13565b60405180910390f35b6103c660048036038101906103c19190612d0f565b610de4565b6040516103d39190612d7d565b60405180910390f35b6103f660048036038101906103f19190612d0f565b610e6a565b6040516104049291906132bf565b60405180910390f35b610427600480360381019061042291906132ef565b610f16565b6040516104349190612e13565b60405180910390f35b61045760048036038101906104529190612d0f565b610fcd565b60405161046491906133cb565b60405180910390f35b610475611141565b6040516104829190612d7d565b60405180910390f35b6104a560048036038101906104a09190612d0f565b611167565b6040516104b594939291906133ed565b60405180910390f35b6104c661123f565b6040516104d39190612cb7565b60405180910390f35b6104f660048036038101906104f19190613439565b6112d1565b005b610512600480360381019061050d91906134d4565b611400565b005b61052e60048036038101906105299190613514565b611416565b005b61054a60048036038101906105459190613611565b6114f0565b005b61056660048036038101906105619190612d0f565b611552565b6040516105739190612cb7565b60405180910390f35b61059660048036038101906105919190613694565b6115ba565b6040516105a39190612c0c565b60405180910390f35b6105c660048036038101906105c19190612d0f565b61164e565b005b60007f780e9d63000000000000000000000000000000000000000000000000000000007bffffffffffffffffffffffffffffffffffffffffffffffffffffffff1916827bffffffffffffffffffffffffffffffffffffffffffffffffffffffff1916148061063b575061063a826117e2565b5b9050919050565b60606000805461065190613703565b80601f016020809104026020016040519081016040528092919081815260200182805461067d90613703565b80156106ca5780601f1061069f576101008083540402835291602001916106ca565b820191906000526020600020905b8154815290600101906020018083116106ad57829003601f168201915b5050505050905090565b60006106df826118c4565b6004600083815260200190815260200160002060009054906101000a900473ffffffffffffffffffffffffffffffffffffffff169050919050565b600061072582610de4565b90508073ffffffffffffffffffffffffffffffffffffffff168373ffffffffffffffffffffffffffffffffffffffff1603610795576040517f08c379a000000000000000000000000000000000000000000000000000000000815260040161078c906137a6565b60405180910390fd5b8073ffffffffffffffffffffffffffffffffffffffff166107b461190f565b73ffffffffffffffffffffffffffffffffffffffff1614806107e357506107e2816107dd61190f565b6115ba565b5b610822576040517f08c379a000000000000000000000000000000000000000000000000000000000815260040161081990613838565b60405180910390fd5b61082c8383611917565b505050565b600a5481565b6000600880549050905090565b600080600190505b6011548110156108905782600e6000838152602001908152602001600020600101540361087d576001915050610896565b808061088890613887565b91505061084c565b50600090505b919050565b6108ac6108a661190f565b826119d0565b6108eb576040517f08c379a00000000000000000000000000000000000000000000000000000000081526004016108e290613941565b60405180910390fd5b6108f6838383611a65565b505050565b600061090683610f16565b8210610947576040517f08c379a000000000000000000000000000000000000000000000000000000000815260040161093e906139d3565b60405180910390fd5b600660008473ffffffffffffffffffffffffffffffffffffffff1673ffffffffffffffffffffffffffffffffffffffff168152602001908152602001600020600083815260200190815260200160002054905092915050565b60606000805b8351811015610a1b5760008482815181106109c4576109c36139f3565b5b60200260200101511180156109f457506011548482815181106109ea576109e96139f3565b5b6020026020010151105b15610a08578180610a0490613887565b9250505b8080610a1390613887565b9150506109a6565b5060008167ffffffffffffffff811115610a3857610a37612e86565b5b604051908082528060200260200182016040528015610a7157816020015b610a5e612b1a565b815260200190600190039081610a565790505b5090506000805b8551811015610c3f576000868281518110610a9657610a956139f3565b5b6020026020010151118015610ac65750601154868281518110610abc57610abb6139f3565b5b6020026020010151105b15610c2c57600e6000878381518110610ae257610ae16139f3565b5b602002602001015181526020019081526020016000206040518060800160405290816000820154815260200160018201548152602001600282018054610b2790613703565b80601f0160208091040260200160405190810160405280929190818152602001828054610b5390613703565b8015610ba05780601f10610b7557610100808354040283529160200191610ba0565b820191906000526020600020905b815481529060010190602001808311610b8357829003601f168201915b505050505081526020016003820160009054906101000a900473ffffffffffffffffffffffffffffffffffffffff1673ffffffffffffffffffffffffffffffffffffffff1673ffffffffffffffffffffffffffffffffffffffff1681525050838381518110610c1257610c116139f3565b5b60200260200101819052508180610c2890613887565b9250505b8080610c3790613887565b915050610a78565b50819350505050919050565b6000600f60009054906101000a900473ffffffffffffffffffffffffffffffffffffffff1673ffffffffffffffffffffffffffffffffffffffff163373ffffffffffffffffffffffffffffffffffffffff1614610cdd576040517f08c379a0000000000000000000000000000000000000000000000000000000008152600401610cd490613a6e565b60405180910390fd5b610ce7600b611d5e565b6000610cf3600b611d74565b9050610cff3382611d82565b604051806040016040528082815260200184815250600d6000838152602001908152602001600020600082015181600001556020820151816001019081610d469190613c3a565b5090505080915050919050565b610d6e838383604051806020016040528060008152506114f0565b505050565b6000610d7d610837565b8210610dbe576040517f08c379a0000000000000000000000000000000000000000000000000000000008152600401610db590613d7e565b60405180910390fd5b60088281548110610dd257610dd16139f3565b5b90600052602060002001549050919050565b600080610df083611da0565b9050600073ffffffffffffffffffffffffffffffffffffffff168173ffffffffffffffffffffffffffffffffffffffff1603610e61576040517f08c379a0000000000000000000000000000000000000000000000000000000008152600401610e5890613dea565b60405180910390fd5b80915050919050565b600d602052806000526040600020600091509050806000015490806001018054610e9390613703565b80601f0160208091040260200160405190810160405280929190818152602001828054610ebf90613703565b8015610f0c5780601f10610ee157610100808354040283529160200191610f0c565b820191906000526020600020905b815481529060010190602001808311610eef57829003601f168201915b5050505050905082565b60008073ffffffffffffffffffffffffffffffffffffffff168273ffffffffffffffffffffffffffffffffffffffff1603610f86576040517f08c379a0000000000000000000000000000000000000000000000000000000008152600401610f7d90613e7c565b60405180910390fd5b600360008373ffffffffffffffffffffffffffffffffffffffff1673ffffffffffffffffffffffffffffffffffffffff168152602001908152602001600020549050919050565b6060600060115467ffffffffffffffff811115610fed57610fec612e86565b5b60405190808252806020026020018201604052801561101b5781602001602082028036833780820191505090505b509050600080600190505b60115481101561108f5784600e6000838152602001908152602001600020600101540361107c5780838381518110611061576110606139f3565b5b602002602001018181525050818061107890613887565b9250505b808061108790613887565b915050611026565b5060008167ffffffffffffffff8111156110ac576110ab612e86565b5b6040519080825280602002602001820160405280156110da5781602001602082028036833780820191505090505b50905060005b82811015611135578381815181106110fb576110fa6139f3565b5b6020026020010151828281518110611116576111156139f3565b5b602002602001018181525050808061112d90613887565b9150506110e0565b50809350505050919050565b600f60009054906101000a900473ffffffffffffffffffffffffffffffffffffffff1681565b600e60205280600052604060002060009150905080600001549080600101549080600201805461119690613703565b80601f01602080910402602001604051908101604052809291908181526020018280546111c290613703565b801561120f5780601f106111e45761010080835404028352916020019161120f565b820191906000526020600020905b8154815290600101906020018083116111f257829003601f168201915b5050505050908060030160009054906101000a900473ffffffffffffffffffffffffffffffffffffffff16905084565b60606001805461124e90613703565b80601f016020809104026020016040519081016040528092919081815260200182805461127a90613703565b80156112c75780601f1061129c576101008083540402835291602001916112c7565b820191906000526020600020905b8154815290600101906020018083116112aa57829003601f168201915b5050505050905090565b6000831180156112e2575060105483105b611321576040517f08c379a000000000000000000000000000000000000000000000000000000000815260040161131890613ee8565b60405180910390fd5b60006011600081548092919061133690613887565b91905055905060405180608001604052808281526020018581526020018481526020018373ffffffffffffffffffffffffffffffffffffffff16815250600e6000838152602001908152602001600020600082015181600001556020820151816001015560408201518160020190816113af9190613c3a565b5060608201518160030160006101000a81548173ffffffffffffffffffffffffffffffffffffffff021916908373ffffffffffffffffffffffffffffffffffffffff16021790555090505050505050565b61141261140b61190f565b8383611ddd565b5050565b600f60009054906101000a900473ffffffffffffffffffffffffffffffffffffffff1673ffffffffffffffffffffffffffffffffffffffff163373ffffffffffffffffffffffffffffffffffffffff16146114a6576040517f08c379a000000000000000000000000000000000000000000000000000000000815260040161149d90613a6e565b60405180910390fd5b600c6000838152602001908152602001600020819080600181540180825580915050600190039060005260206000200160009091909190915090816114eb9190613c3a565b505050565b6115016114fb61190f565b836119d0565b611540576040517f08c379a000000000000000000000000000000000000000000000000000000000815260040161153790613941565b60405180910390fd5b61154c84848484611f49565b50505050565b606061155d826118c4565b6000611567611fa5565b9050600081511161158757604051806020016040528060008152506115b2565b8061159184611fbc565b6040516020016115a2929190613f44565b6040516020818303038152906040525b915050919050565b6000600560008473ffffffffffffffffffffffffffffffffffffffff1673ffffffffffffffffffffffffffffffffffffffff16815260200190815260200160002060008373ffffffffffffffffffffffffffffffffffffffff1673ffffffffffffffffffffffffffffffffffffffff16815260200190815260200160002060009054906101000a900460ff16905092915050565b600073ffffffffffffffffffffffffffffffffffffffff16600f60009054906101000a900473ffffffffffffffffffffffffffffffffffffffff1673ffffffffffffffffffffffffffffffffffffffff16036116df576040517f08c379a00000000000000000000000000000000000000000000000000000000081526004016116d690613fb4565b60405180910390fd5b600f60009054906101000a900473ffffffffffffffffffffffffffffffffffffffff1673ffffffffffffffffffffffffffffffffffffffff163373ffffffffffffffffffffffffffffffffffffffff160361176f576040517f08c379a000000000000000000000000000000000000000000000000000000000815260040161176690614020565b60405180910390fd5b61179e600f60009054906101000a900473ffffffffffffffffffffffffffffffffffffffff1633600a5461089b565b33600f60006101000a81548173ffffffffffffffffffffffffffffffffffffffff021916908373ffffffffffffffffffffffffffffffffffffffff16021790555050565b60007f80ac58cd000000000000000000000000000000000000000000000000000000007bffffffffffffffffffffffffffffffffffffffffffffffffffffffff1916827bffffffffffffffffffffffffffffffffffffffffffffffffffffffff191614806118ad57507f5b5e139f000000000000000000000000000000000000000000000000000000007bffffffffffffffffffffffffffffffffffffffffffffffffffffffff1916827bffffffffffffffffffffffffffffffffffffffffffffffffffffffff1916145b806118bd57506118bc8261208a565b5b9050919050565b6118cd816120f4565b61190c576040517f08c379a000000000000000000000000000000000000000000000000000000000815260040161190390613dea565b60405180910390fd5b50565b600033905090565b816004600083815260200190815260200160002060006101000a81548173ffffffffffffffffffffffffffffffffffffffff021916908373ffffffffffffffffffffffffffffffffffffffff160217905550808273ffffffffffffffffffffffffffffffffffffffff1661198a83610de4565b73ffffffffffffffffffffffffffffffffffffffff167f8c5be1e5ebec7d5bd14f71427d1e84f3dd0314c0f7b2291e5b200ac8c7c3b92560405160405180910390a45050565b6000806119dc83610de4565b90508073ffffffffffffffffffffffffffffffffffffffff168473ffffffffffffffffffffffffffffffffffffffff161480611a1e5750611a1d81856115ba565b5b80611a5c57508373ffffffffffffffffffffffffffffffffffffffff16611a44846106d4565b73ffffffffffffffffffffffffffffffffffffffff16145b91505092915050565b8273ffffffffffffffffffffffffffffffffffffffff16611a8582610de4565b73ffffffffffffffffffffffffffffffffffffffff1614611adb576040517f08c379a0000000000000000000000000000000000000000000000000000000008152600401611ad2906140b2565b60405180910390fd5b600073ffffffffffffffffffffffffffffffffffffffff168273ffffffffffffffffffffffffffffffffffffffff1603611b4a576040517f08c379a0000000000000000000000000000000000000000000000000000000008152600401611b4190614144565b60405180910390fd5b611b578383836001612135565b8273ffffffffffffffffffffffffffffffffffffffff16611b7782610de4565b73ffffffffffffffffffffffffffffffffffffffff1614611bcd576040517f08c379a0000000000000000000000000000000000000000000000000000000008152600401611bc4906140b2565b60405180910390fd5b6004600082815260200190815260200160002060006101000a81549073ffffffffffffffffffffffffffffffffffffffff02191690556001600360008573ffffffffffffffffffffffffffffffffffffffff1673ffffffffffffffffffffffffffffffffffffffff168152602001908152602001600020600082825403925050819055506001600360008473ffffffffffffffffffffffffffffffffffffffff1673ffffffffffffffffffffffffffffffffffffffff16815260200190815260200160002060008282540192505081905550816002600083815260200190815260200160002060006101000a81548173ffffffffffffffffffffffffffffffffffffffff021916908373ffffffffffffffffffffffffffffffffffffffff160217905550808273ffffffffffffffffffffffffffffffffffffffff168473ffffffffffffffffffffffffffffffffffffffff167fddf252ad1be2c89b69c2b068fc378daa952ba7f163c4a11628f55a4df523b3ef60405160405180910390a4611d598383836001612293565b505050565b6001816000016000828254019250508190555050565b600081600001549050919050565b611d9c828260405180602001604052806000815250612299565b5050565b60006002600083815260200190815260200160002060009054906101000a900473ffffffffffffffffffffffffffffffffffffffff169050919050565b8173ffffffffffffffffffffffffffffffffffffffff168373ffffffffffffffffffffffffffffffffffffffff1603611e4b576040517f08c379a0000000000000000000000000000000000000000000000000000000008152600401611e42906141b0565b60405180910390fd5b80600560008573ffffffffffffffffffffffffffffffffffffffff1673ffffffffffffffffffffffffffffffffffffffff16815260200190815260200160002060008473ffffffffffffffffffffffffffffffffffffffff1673ffffffffffffffffffffffffffffffffffffffff16815260200190815260200160002060006101000a81548160ff0219169083151502179055508173ffffffffffffffffffffffffffffffffffffffff168373ffffffffffffffffffffffffffffffffffffffff167f17307eab39ab6107e8899845ad3d59bd9653f200f220920489ca2b5937696c3183604051611f3c9190612c0c565b60405180910390a3505050565b611f54848484611a65565b611f60848484846122f4565b611f9f576040517f08c379a0000000000000000000000000000000000000000000000000000000008152600401611f9690614242565b60405180910390fd5b50505050565b606060405180602001604052806000815250905090565b606060006001611fcb8461247b565b01905060008167ffffffffffffffff811115611fea57611fe9612e86565b5b6040519080825280601f01601f19166020018201604052801561201c5781602001600182028036833780820191505090505b509050600082602001820190505b60011561207f578080600190039150507f3031323334353637383961626364656600000000000000000000000000000000600a86061a8153600a858161207357612072614262565b5b0494506000850361202a575b819350505050919050565b60007f01ffc9a7000000000000000000000000000000000000000000000000000000007bffffffffffffffffffffffffffffffffffffffffffffffffffffffff1916827bffffffffffffffffffffffffffffffffffffffffffffffffffffffff1916149050919050565b60008073ffffffffffffffffffffffffffffffffffffffff1661211683611da0565b73ffffffffffffffffffffffffffffffffffffffff1614159050919050565b612141848484846125ce565b6001811115612185576040517f08c379a000000000000000000000000000000000000000000000000000000000815260040161217c90614303565b60405180910390fd5b6000829050600073ffffffffffffffffffffffffffffffffffffffff168573ffffffffffffffffffffffffffffffffffffffff16036121cc576121c7816125d4565b61220b565b8373ffffffffffffffffffffffffffffffffffffffff168573ffffffffffffffffffffffffffffffffffffffff161461220a57612209858261261d565b5b5b600073ffffffffffffffffffffffffffffffffffffffff168473ffffffffffffffffffffffffffffffffffffffff160361224d576122488161278a565b61228c565b8473ffffffffffffffffffffffffffffffffffffffff168473ffffffffffffffffffffffffffffffffffffffff161461228b5761228a848261285b565b5b5b5050505050565b50505050565b6122a383836128da565b6122b060008484846122f4565b6122ef576040517f08c379a00000000000000000000000000000000000000000000000000000000081526004016122e690614242565b60405180910390fd5b505050565b60006123158473ffffffffffffffffffffffffffffffffffffffff16612af7565b1561246e578373ffffffffffffffffffffffffffffffffffffffff1663150b7a0261233e61190f565b8786866040518563ffffffff1660e01b81526004016123609493929190614378565b6020604051808303816000875af192505050801561239c57506040513d601f19601f8201168201806040525081019061239991906143d9565b60015b61241e573d80600081146123cc576040519150601f19603f3d011682016040523d82523d6000602084013e6123d1565b606091505b506000815103612416576040517f08c379a000000000000000000000000000000000000000000000000000000000815260040161240d90614242565b60405180910390fd5b805181602001fd5b63150b7a0260e01b7bffffffffffffffffffffffffffffffffffffffffffffffffffffffff1916817bffffffffffffffffffffffffffffffffffffffffffffffffffffffff191614915050612473565b600190505b949350505050565b600080600090507a184f03e93ff9f4daa797ed6e38ed64bf6a1f01000000000000000083106124d9577a184f03e93ff9f4daa797ed6e38ed64bf6a1f01000000000000000083816124cf576124ce614262565b5b0492506040810190505b6d04ee2d6d415b85acef81000000008310612516576d04ee2d6d415b85acef8100000000838161250c5761250b614262565b5b0492506020810190505b662386f26fc10000831061254557662386f26fc10000838161253b5761253a614262565b5b0492506010810190505b6305f5e100831061256e576305f5e100838161256457612563614262565b5b0492506008810190505b612710831061259357612710838161258957612588614262565b5b0492506004810190505b606483106125b657606483816125ac576125ab614262565b5b0492506002810190505b600a83106125c5576001810190505b80915050919050565b50505050565b6008805490506009600083815260200190815260200160002081905550600881908060018154018082558091505060019003906000526020600020016000909190919091505550565b6000600161262a84610f16565b6126349190614406565b9050600060076000848152602001908152602001600020549050818114612719576000600660008673ffffffffffffffffffffffffffffffffffffffff1673ffffffffffffffffffffffffffffffffffffffff168152602001908152602001600020600084815260200190815260200160002054905080600660008773ffffffffffffffffffffffffffffffffffffffff1673ffffffffffffffffffffffffffffffffffffffff168152602001908152602001600020600084815260200190815260200160002081905550816007600083815260200190815260200160002081905550505b6007600084815260200190815260200160002060009055600660008573ffffffffffffffffffffffffffffffffffffffff1673ffffffffffffffffffffffffffffffffffffffff16815260200190815260200160002060008381526020019081526020016000206000905550505050565b6000600160088054905061279e9190614406565b90506000600960008481526020019081526020016000205490506000600883815481106127ce576127cd6139f3565b5b9060005260206000200154905080600883815481106127f0576127ef6139f3565b5b90600052602060002001819055508160096000838152602001908152602001600020819055506009600085815260200190815260200160002060009055600880548061283f5761283e61443a565b5b6001900381819060005260206000200160009055905550505050565b600061286683610f16565b905081600660008573ffffffffffffffffffffffffffffffffffffffff1673ffffffffffffffffffffffffffffffffffffffff168152602001908152602001600020600083815260200190815260200160002081905550806007600084815260200190815260200160002081905550505050565b600073ffffffffffffffffffffffffffffffffffffffff168273ffffffffffffffffffffffffffffffffffffffff1603612949576040517f08c379a0000000000000000000000000000000000000000000000000000000008152600401612940906144b5565b60405180910390fd5b612952816120f4565b15612992576040517f08c379a000000000000000000000000000000000000000000000000000000000815260040161298990614521565b60405180910390fd5b6129a0600083836001612135565b6129a9816120f4565b156129e9576040517f08c379a00000000000000000000000000000000000000000000000000000000081526004016129e090614521565b60405180910390fd5b6001600360008473ffffffffffffffffffffffffffffffffffffffff1673ffffffffffffffffffffffffffffffffffffffff16815260200190815260200160002060008282540192505081905550816002600083815260200190815260200160002060006101000a81548173ffffffffffffffffffffffffffffffffffffffff021916908373ffffffffffffffffffffffffffffffffffffffff160217905550808273ffffffffffffffffffffffffffffffffffffffff16600073ffffffffffffffffffffffffffffffffffffffff167fddf252ad1be2c89b69c2b068fc378daa952ba7f163c4a11628f55a4df523b3ef60405160405180910390a4612af3600083836001612293565b5050565b6000808273ffffffffffffffffffffffffffffffffffffffff163b119050919050565b6040518060800160405280600081526020016000815260200160608152602001600073ffffffffffffffffffffffffffffffffffffffff1681525090565b6000604051905090565b600080fd5b600080fd5b60007fffffffff0000000000000000000000000000000000000000000000000000000082169050919050565b612ba181612b6c565b8114612bac57600080fd5b50565b600081359050612bbe81612b98565b92915050565b600060208284031215612bda57612bd9612b62565b5b6000612be884828501612baf565b91505092915050565b60008115159050919050565b612c0681612bf1565b82525050565b6000602082019050612c216000830184612bfd565b92915050565b600081519050919050565b600082825260208201905092915050565b60005b83811015612c61578082015181840152602081019050612c46565b60008484015250505050565b6000601f19601f8301169050919050565b6000612c8982612c27565b612c938185612c32565b9350612ca3818560208601612c43565b612cac81612c6d565b840191505092915050565b60006020820190508181036000830152612cd18184612c7e565b905092915050565b6000819050919050565b612cec81612cd9565b8114612cf757600080fd5b50565b600081359050612d0981612ce3565b92915050565b600060208284031215612d2557612d24612b62565b5b6000612d3384828501612cfa565b91505092915050565b600073ffffffffffffffffffffffffffffffffffffffff82169050919050565b6000612d6782612d3c565b9050919050565b612d7781612d5c565b82525050565b6000602082019050612d926000830184612d6e565b92915050565b612da181612d5c565b8114612dac57600080fd5b50565b600081359050612dbe81612d98565b92915050565b60008060408385031215612ddb57612dda612b62565b5b6000612de985828601612daf565b9250506020612dfa85828601612cfa565b9150509250929050565b612e0d81612cd9565b82525050565b6000602082019050612e286000830184612e04565b92915050565b600080600060608486031215612e4757612e46612b62565b5b6000612e5586828701612daf565b9350506020612e6686828701612daf565b9250506040612e7786828701612cfa565b9150509250925092565b600080fd5b7f4e487b7100000000000000000000000000000000000000000000000000000000600052604160045260246000fd5b612ebe82612c6d565b810181811067ffffffffffffffff82111715612edd57612edc612e86565b5b80604052505050565b6000612ef0612b58565b9050612efc8282612eb5565b919050565b600067ffffffffffffffff821115612f1c57612f1b612e86565b5b602082029050602081019050919050565b600080fd5b6000612f45612f4084612f01565b612ee6565b90508083825260208201905060208402830185811115612f6857612f67612f2d565b5b835b81811015612f915780612f7d8882612cfa565b845260208401935050602081019050612f6a565b5050509392505050565b600082601f830112612fb057612faf612e81565b5b8135612fc0848260208601612f32565b91505092915050565b600060208284031215612fdf57612fde612b62565b5b600082013567ffffffffffffffff811115612ffd57612ffc612b67565b5b61300984828501612f9b565b91505092915050565b600081519050919050565b600082825260208201905092915050565b6000819050602082019050919050565b61304781612cd9565b82525050565b600082825260208201905092915050565b600061306982612c27565b613073818561304d565b9350613083818560208601612c43565b61308c81612c6d565b840191505092915050565b6130a081612d5c565b82525050565b60006080830160008301516130be600086018261303e565b5060208301516130d1602086018261303e565b50604083015184820360408601526130e9828261305e565b91505060608301516130fe6060860182613097565b508091505092915050565b600061311583836130a6565b905092915050565b6000602082019050919050565b600061313582613012565b61313f818561301d565b9350836020820285016131518561302e565b8060005b8581101561318d578484038952815161316e8582613109565b94506131798361311d565b925060208a01995050600181019050613155565b50829750879550505050505092915050565b600060208201905081810360008301526131b9818461312a565b905092915050565b600080fd5b600067ffffffffffffffff8211156131e1576131e0612e86565b5b6131ea82612c6d565b9050602081019050919050565b82818337600083830152505050565b6000613219613214846131c6565b612ee6565b905082815260208101848484011115613235576132346131c1565b5b6132408482856131f7565b509392505050565b600082601f83011261325d5761325c612e81565b5b813561326d848260208601613206565b91505092915050565b60006020828403121561328c5761328b612b62565b5b600082013567ffffffffffffffff8111156132aa576132a9612b67565b5b6132b684828501613248565b91505092915050565b60006040820190506132d46000830185612e04565b81810360208301526132e68184612c7e565b90509392505050565b60006020828403121561330557613304612b62565b5b600061331384828501612daf565b91505092915050565b600081519050919050565b600082825260208201905092915050565b6000819050602082019050919050565b6000613354838361303e565b60208301905092915050565b6000602082019050919050565b60006133788261331c565b6133828185613327565b935061338d83613338565b8060005b838110156133be5781516133a58882613348565b97506133b083613360565b925050600181019050613391565b5085935050505092915050565b600060208201905081810360008301526133e5818461336d565b905092915050565b60006080820190506134026000830187612e04565b61340f6020830186612e04565b81810360408301526134218185612c7e565b90506134306060830184612d6e565b95945050505050565b60008060006060848603121561345257613451612b62565b5b600061346086828701612cfa565b935050602084013567ffffffffffffffff81111561348157613480612b67565b5b61348d86828701613248565b925050604061349e86828701612daf565b9150509250925092565b6134b181612bf1565b81146134bc57600080fd5b50565b6000813590506134ce816134a8565b92915050565b600080604083850312156134eb576134ea612b62565b5b60006134f985828601612daf565b925050602061350a858286016134bf565b9150509250929050565b6000806040838503121561352b5761352a612b62565b5b600061353985828601612cfa565b925050602083013567ffffffffffffffff81111561355a57613559612b67565b5b61356685828601613248565b9150509250929050565b600067ffffffffffffffff82111561358b5761358a612e86565b5b61359482612c6d565b9050602081019050919050565b60006135b46135af84613570565b612ee6565b9050828152602081018484840111156135d0576135cf6131c1565b5b6135db8482856131f7565b509392505050565b600082601f8301126135f8576135f7612e81565b5b81356136088482602086016135a1565b91505092915050565b6000806000806080858703121561362b5761362a612b62565b5b600061363987828801612daf565b945050602061364a87828801612daf565b935050604061365b87828801612cfa565b925050606085013567ffffffffffffffff81111561367c5761367b612b67565b5b613688878288016135e3565b91505092959194509250565b600080604083850312156136ab576136aa612b62565b5b60006136b985828601612daf565b92505060206136ca85828601612daf565b9150509250929050565b7f4e487b7100000000000000000000000000000000000000000000000000000000600052602260045260246000fd5b6000600282049050600182168061371b57607f821691505b60208210810361372e5761372d6136d4565b5b50919050565b7f4552433732313a20617070726f76616c20746f2063757272656e74206f776e6560008201527f7200000000000000000000000000000000000000000000000000000000000000602082015250565b6000613790602183612c32565b915061379b82613734565b604082019050919050565b600060208201905081810360008301526137bf81613783565b9050919050565b7f4552433732313a20617070726f76652063616c6c6572206973206e6f7420746f60008201527f6b656e206f776e6572206f7220617070726f76656420666f7220616c6c000000602082015250565b6000613822603d83612c32565b915061382d826137c6565b604082019050919050565b6000602082019050818103600083015261385181613815565b9050919050565b7f4e487b7100000000000000000000000000000000000000000000000000000000600052601160045260246000fd5b600061389282612cd9565b91507fffffffffffffffffffffffffffffffffffffffffffffffffffffffffffffffff82036138c4576138c3613858565b5b600182019050919050565b7f4552433732313a2063616c6c6572206973206e6f7420746f6b656e206f776e6560008201527f72206f7220617070726f76656400000000000000000000000000000000000000602082015250565b600061392b602d83612c32565b9150613936826138cf565b604082019050919050565b6000602082019050818103600083015261395a8161391e565b9050919050565b7f455243373231456e756d657261626c653a206f776e657220696e646578206f7560008201527f74206f6620626f756e6473000000000000000000000000000000000000000000602082015250565b60006139bd602b83612c32565b91506139c882613961565b604082019050919050565b600060208201905081810360008301526139ec816139b0565b9050919050565b7f4e487b7100000000000000000000000000000000000000000000000000000000600052603260045260246000fd5b7f43616c6c6572206973206e6f7420746865206f776e65722e0000000000000000600082015250565b6000613a58601883612c32565b9150613a6382613a22565b602082019050919050565b60006020820190508181036000830152613a8781613a4b565b9050919050565b60008190508160005260206000209050919050565b60006020601f8301049050919050565b600082821b905092915050565b600060088302613af07fffffffffffffffffffffffffffffffffffffffffffffffffffffffffffffffff82613ab3565b613afa8683613ab3565b95508019841693508086168417925050509392505050565b6000819050919050565b6000613b37613b32613b2d84612cd9565b613b12565b612cd9565b9050919050565b6000819050919050565b613b5183613b1c565b613b65613b5d82613b3e565b848454613ac0565b825550505050565b600090565b613b7a613b6d565b613b85818484613b48565b505050565b5b81811015613ba957613b9e600082613b72565b600181019050613b8b565b5050565b601f821115613bee57613bbf81613a8e565b613bc884613aa3565b81016020851015613bd7578190505b613beb613be385613aa3565b830182613b8a565b50505b505050565b600082821c905092915050565b6000613c1160001984600802613bf3565b1980831691505092915050565b6000613c2a8383613c00565b9150826002028217905092915050565b613c4382612c27565b67ffffffffffffffff811115613c5c57613c5b612e86565b5b613c668254613703565b613c71828285613bad565b600060209050601f831160018114613ca45760008415613c92578287015190505b613c9c8582613c1e565b865550613d04565b601f198416613cb286613a8e565b60005b82811015613cda57848901518255600182019150602085019450602081019050613cb5565b86831015613cf75784890151613cf3601f891682613c00565b8355505b6001600288020188555050505b505050505050565b7f455243373231456e756d657261626c653a20676c6f62616c20696e646578206f60008201527f7574206f6620626f756e64730000000000000000000000000000000000000000602082015250565b6000613d68602c83612c32565b9150613d7382613d0c565b604082019050919050565b60006020820190508181036000830152613d9781613d5b565b9050919050565b7f4552433732313a20696e76616c696420746f6b656e2049440000000000000000600082015250565b6000613dd4601883612c32565b9150613ddf82613d9e565b602082019050919050565b60006020820190508181036000830152613e0381613dc7565b9050919050565b7f4552433732313a2061646472657373207a65726f206973206e6f74206120766160008201527f6c6964206f776e65720000000000000000000000000000000000000000000000602082015250565b6000613e66602983612c32565b9150613e7182613e0a565b604082019050919050565b60006020820190508181036000830152613e9581613e59565b9050919050565b7f496e76616c696420426f6f6b2049442e00000000000000000000000000000000600082015250565b6000613ed2601083612c32565b9150613edd82613e9c565b602082019050919050565b60006020820190508181036000830152613f0181613ec5565b9050919050565b600081905092915050565b6000613f1e82612c27565b613f288185613f08565b9350613f38818560208601612c43565b80840191505092915050565b6000613f508285613f13565b9150613f5c8284613f13565b91508190509392505050565b7f4e4654206973206e6f74206d696e746564207965740000000000000000000000600082015250565b6000613f9e601583612c32565b9150613fa982613f68565b602082019050919050565b60006020820190508181036000830152613fcd81613f91565b9050919050565b7f596f752063616e277420707572636861736520796f7572206f776e204e465400600082015250565b600061400a601f83612c32565b915061401582613fd4565b602082019050919050565b6000602082019050818103600083015261403981613ffd565b9050919050565b7f4552433732313a207472616e736665722066726f6d20696e636f72726563742060008201527f6f776e6572000000000000000000000000000000000000000000000000000000602082015250565b600061409c602583612c32565b91506140a782614040565b604082019050919050565b600060208201905081810360008301526140cb8161408f565b9050919050565b7f4552433732313a207472616e7366657220746f20746865207a65726f2061646460008201527f7265737300000000000000000000000000000000000000000000000000000000602082015250565b600061412e602483612c32565b9150614139826140d2565b604082019050919050565b6000602082019050818103600083015261415d81614121565b9050919050565b7f4552433732313a20617070726f766520746f2063616c6c657200000000000000600082015250565b600061419a601983612c32565b91506141a582614164565b602082019050919050565b600060208201905081810360008301526141c98161418d565b9050919050565b7f4552433732313a207472616e7366657220746f206e6f6e20455243373231526560008201527f63656976657220696d706c656d656e7465720000000000000000000000000000602082015250565b600061422c603283612c32565b9150614237826141d0565b604082019050919050565b6000602082019050818103600083015261425b8161421f565b9050919050565b7f4e487b7100000000000000000000000000000000000000000000000000000000600052601260045260246000fd5b7f455243373231456e756d657261626c653a20636f6e736563757469766520747260008201527f616e7366657273206e6f7420737570706f727465640000000000000000000000602082015250565b60006142ed603583612c32565b91506142f882614291565b604082019050919050565b6000602082019050818103600083015261431c816142e0565b9050919050565b600081519050919050565b600082825260208201905092915050565b600061434a82614323565b614354818561432e565b9350614364818560208601612c43565b61436d81612c6d565b840191505092915050565b600060808201905061438d6000830187612d6e565b61439a6020830186612d6e565b6143a76040830185612e04565b81810360608301526143b9818461433f565b905095945050505050565b6000815190506143d381612b98565b92915050565b6000602082840312156143ef576143ee612b62565b5b60006143fd848285016143c4565b91505092915050565b600061441182612cd9565b915061441c83612cd9565b925082820390508181111561443457614433613858565b5b92915050565b7f4e487b7100000000000000000000000000000000000000000000000000000000600052603160045260246000fd5b7f4552433732313a206d696e7420746f20746865207a65726f2061646472657373600082015250565b600061449f602083612c32565b91506144aa82614469565b602082019050919050565b600060208201905081810360008301526144ce81614492565b9050919050565b7f4552433732313a20746f6b656e20616c7265616479206d696e74656400000000600082015250565b600061450b601c83612c32565b9150614516826144d5565b602082019050919050565b6000602082019050818103600083015261453a816144fe565b905091905056fea26469706673582212203b5e094d775288ddaba7efe72cd20d8b2b21ed5d8447e26063e1175c73fffaf964736f6c63430008120033",
  "linkReferences": {},
  "deployedLinkReferences": {}
}